{
  "address": "0x8Dc3fC227f0b3d6c0c39A72341a423fC6d75AbF9",
  "abi": [
    {
      "inputs": [],
      "name": "MATH_DIVISION_BY_ZERO",
      "type": "error"
    },
    {
      "inputs": [],
      "name": "MATH_MULTIPLICATION_OVERFLOW",
      "type": "error"
    },
    {
      "inputs": [],
      "name": "T_ADDRESS_ZERO",
      "type": "error"
    },
    {
      "inputs": [],
      "name": "T_BACKUP_ADDRESS_ALREADY_EXISTS",
      "type": "error"
    },
    {
      "inputs": [],
      "name": "T_BACKUP_ADDRESS_IS_OWNER",
      "type": "error"
    },
    {
      "inputs": [],
      "name": "T_INHERITANCE_PERCENTAGE_EXCEEDED",
      "type": "error"
    },
    {
      "inputs": [],
      "name": "T_NO_TRANSCENDENCE",
      "type": "error"
    },
    {
      "inputs": [],
      "name": "T_SUCCEEDED",
      "type": "error"
    },
    {
      "inputs": [],
      "name": "T_TESTAMENT_ALREADY_EXISTS",
      "type": "error"
    },
    {
      "inputs": [],
      "name": "T_UNAUTHORIZED",
      "type": "error"
    },
    {
      "anonymous": false,
      "inputs": [
        {
          "indexed": false,
          "internalType": "address",
          "name": "owner",
          "type": "address"
        },
        {
          "indexed": false,
          "internalType": "address",
          "name": "backupAddress",
          "type": "address"
        }
      ],
      "name": "BackupAdded",
      "type": "event"
    },
    {
      "anonymous": false,
      "inputs": [
        {
          "indexed": false,
          "internalType": "address",
          "name": "owner",
          "type": "address"
        },
        {
          "indexed": false,
          "internalType": "address",
          "name": "beneficiary",
          "type": "address"
        }
      ],
      "name": "BeneficiaryAdded",
      "type": "event"
    },
    {
      "anonymous": false,
      "inputs": [
        {
          "indexed": false,
          "internalType": "address",
          "name": "owner",
          "type": "address"
        },
        {
          "indexed": false,
          "internalType": "address",
          "name": "beneficiaryAddress",
          "type": "address"
        },
        {
          "indexed": false,
          "internalType": "uint128",
          "name": "newInheritancePercentage",
          "type": "uint128"
        }
      ],
      "name": "BeneficiaryPercentageUpdated",
      "type": "event"
    },
    {
      "anonymous": false,
      "inputs": [
        {
          "indexed": false,
          "internalType": "address",
          "name": "owner",
          "type": "address"
        },
        {
          "indexed": false,
          "internalType": "address",
          "name": "beneficiary",
          "type": "address"
        }
      ],
      "name": "BeneficiaryRemoved",
      "type": "event"
    },
    {
      "anonymous": false,
      "inputs": [
        {
          "indexed": false,
          "internalType": "uint128",
          "name": "newEstablishmentFeeRate",
          "type": "uint128"
        }
      ],
      "name": "EstablishmentFeeRateUpdated",
      "type": "event"
    },
    {
      "anonymous": false,
      "inputs": [
        {
          "indexed": false,
          "internalType": "uint8",
          "name": "version",
          "type": "uint8"
        }
      ],
      "name": "Initialized",
      "type": "event"
    },
    {
      "anonymous": false,
      "inputs": [
        {
          "indexed": true,
          "internalType": "address",
          "name": "previousOwner",
          "type": "address"
        },
        {
          "indexed": true,
          "internalType": "address",
          "name": "newOwner",
          "type": "address"
        }
      ],
      "name": "OwnershipTransferred",
      "type": "event"
    },
    {
      "anonymous": false,
      "inputs": [
        {
          "indexed": false,
          "internalType": "address",
          "name": "account",
          "type": "address"
        }
      ],
      "name": "Paused",
      "type": "event"
    },
    {
      "anonymous": false,
      "inputs": [
        {
          "indexed": false,
          "internalType": "address",
          "name": "owner",
          "type": "address"
        },
        {
          "indexed": false,
          "internalType": "uint128",
          "name": "timestamp",
          "type": "uint128"
        }
      ],
      "name": "ProofOfLifeUpdated",
      "type": "event"
    },
    {
      "anonymous": false,
      "inputs": [
        {
          "indexed": false,
          "internalType": "address",
          "name": "owner",
          "type": "address"
        }
      ],
      "name": "TestamentSucceeded",
      "type": "event"
    },
    {
      "anonymous": false,
      "inputs": [
        {
          "indexed": false,
          "internalType": "address",
          "name": "owner",
          "type": "address"
        },
        {
          "indexed": false,
          "internalType": "address",
          "name": "token",
          "type": "address"
        }
      ],
      "name": "TokenAdded",
      "type": "event"
    },
    {
      "anonymous": false,
      "inputs": [
        {
          "indexed": false,
          "internalType": "address",
          "name": "account",
          "type": "address"
        }
      ],
      "name": "Unpaused",
      "type": "event"
    },
    {
      "anonymous": false,
      "inputs": [
        {
          "indexed": false,
          "internalType": "address",
          "name": "owner",
          "type": "address"
        },
        {
          "indexed": false,
          "internalType": "address",
          "name": "backupAddress",
          "type": "address"
        }
      ],
      "name": "accountRepossessed",
      "type": "event"
    },
    {
      "inputs": [
        {
          "internalType": "address",
          "name": "backupAddress",
          "type": "address"
        }
      ],
      "name": "addBackup",
      "outputs": [],
      "stateMutability": "nonpayable",
      "type": "function"
    },
    {
      "inputs": [
        {
          "components": [
            {
              "internalType": "string",
              "name": "name",
              "type": "string"
            },
            {
              "internalType": "address payable",
              "name": "address_",
              "type": "address"
            },
            {
              "internalType": "uint128",
              "name": "inheritancePercentage",
              "type": "uint128"
            }
          ],
          "internalType": "struct Types.Beneficiary",
          "name": "beneficiary",
          "type": "tuple"
        }
      ],
      "name": "addBeneficiary",
      "outputs": [],
      "stateMutability": "nonpayable",
      "type": "function"
    },
    {
      "inputs": [
        {
          "internalType": "address",
          "name": "token",
          "type": "address"
        }
      ],
      "name": "addToken",
      "outputs": [],
      "stateMutability": "nonpayable",
      "type": "function"
    },
    {
      "inputs": [
        {
          "internalType": "address",
          "name": "claimant",
          "type": "address"
        },
        {
          "internalType": "uint128",
          "name": "inactivityMaximum",
          "type": "uint128"
        },
        {
          "components": [
            {
              "internalType": "string",
              "name": "name",
              "type": "string"
            },
            {
              "internalType": "address payable",
              "name": "address_",
              "type": "address"
            },
            {
              "internalType": "uint128",
              "name": "inheritancePercentage",
              "type": "uint128"
            }
          ],
          "internalType": "struct Types.Beneficiary[]",
          "name": "beneficiaries",
          "type": "tuple[]"
        }
      ],
      "name": "createTestament",
      "outputs": [],
      "stateMutability": "nonpayable",
      "type": "function"
    },
    {
      "inputs": [
        {
          "internalType": "address",
          "name": "",
          "type": "address"
        }
      ],
      "name": "dynamicVaults",
      "outputs": [
        {
          "components": [
            {
              "internalType": "address",
              "name": "claimant",
              "type": "address"
            },
            {
              "internalType": "uint128",
              "name": "inactivityMaximum",
              "type": "uint128"
            },
            {
              "internalType": "uint128",
              "name": "proofOfLife",
              "type": "uint128"
            },
            {
              "internalType": "bool",
              "name": "succeeded",
              "type": "bool"
            },
            {
              "components": [
                {
                  "internalType": "string",
                  "name": "name",
                  "type": "string"
                },
                {
                  "internalType": "address payable",
                  "name": "address_",
                  "type": "address"
                },
                {
                  "internalType": "uint128",
                  "name": "inheritancePercentage",
                  "type": "uint128"
                }
              ],
              "internalType": "struct Types.Beneficiary[]",
              "name": "beneficiaries",
              "type": "tuple[]"
            },
            {
              "internalType": "address[]",
              "name": "tokens",
              "type": "address[]"
            }
          ],
          "internalType": "struct Types.Testament",
          "name": "testament",
          "type": "tuple"
        },
        {
          "internalType": "uint128",
          "name": "ESTABLISHMENT_FEE_RATE",
          "type": "uint128"
        }
      ],
      "stateMutability": "view",
      "type": "function"
    },
    {
      "inputs": [
        {
          "internalType": "address",
          "name": "owner",
          "type": "address"
        }
      ],
      "name": "getBackupAddresses",
      "outputs": [
        {
          "internalType": "address[]",
          "name": "",
          "type": "address[]"
        }
      ],
      "stateMutability": "view",
      "type": "function"
    },
    {
      "inputs": [
        {
          "internalType": "address",
          "name": "owner",
          "type": "address"
        }
      ],
      "name": "getTestamentParameters",
      "outputs": [
        {
          "internalType": "address",
          "name": "claimant",
          "type": "address"
        },
        {
          "internalType": "address[]",
          "name": "tokens",
          "type": "address[]"
        },
        {
          "internalType": "uint128",
          "name": "inactivityMaximum",
          "type": "uint128"
        },
        {
          "internalType": "uint128",
          "name": "proofOfLife",
          "type": "uint128"
        },
        {
          "internalType": "bool",
          "name": "succeeded",
          "type": "bool"
        },
        {
          "internalType": "string[]",
          "name": "beneficiariesNames",
          "type": "string[]"
        },
        {
          "internalType": "address[]",
          "name": "beneficiariesAddresses",
          "type": "address[]"
        },
        {
          "internalType": "uint256[]",
          "name": "beneficiariesInheritancePercentages",
          "type": "uint256[]"
        }
      ],
      "stateMutability": "view",
      "type": "function"
    },
    {
      "inputs": [
        {
          "internalType": "uint128",
          "name": "establishmentFeeRate_",
          "type": "uint128"
        }
      ],
      "name": "initialize",
      "outputs": [],
      "stateMutability": "nonpayable",
      "type": "function"
    },
    {
      "inputs": [],
      "name": "owner",
      "outputs": [
        {
          "internalType": "address",
          "name": "",
          "type": "address"
        }
      ],
      "stateMutability": "view",
      "type": "function"
    },
    {
      "inputs": [],
      "name": "pause",
      "outputs": [],
      "stateMutability": "nonpayable",
      "type": "function"
    },
    {
      "inputs": [],
      "name": "paused",
      "outputs": [
        {
          "internalType": "bool",
          "name": "",
          "type": "bool"
        }
      ],
      "stateMutability": "view",
      "type": "function"
    },
    {
      "inputs": [
        {
          "internalType": "address",
          "name": "backupAddress",
          "type": "address"
        }
      ],
      "name": "removeBackup",
      "outputs": [],
      "stateMutability": "nonpayable",
      "type": "function"
    },
    {
      "inputs": [
        {
          "internalType": "address",
          "name": "address_",
          "type": "address"
        }
      ],
      "name": "removeBeneficiary",
      "outputs": [],
      "stateMutability": "nonpayable",
      "type": "function"
    },
    {
      "inputs": [],
      "name": "renounceOwnership",
      "outputs": [],
      "stateMutability": "nonpayable",
      "type": "function"
    },
    {
      "inputs": [
        {
          "internalType": "address",
          "name": "owner",
          "type": "address"
        }
      ],
      "name": "repossessAccount",
      "outputs": [],
      "stateMutability": "nonpayable",
      "type": "function"
    },
    {
      "inputs": [],
      "name": "signalLife",
      "outputs": [],
      "stateMutability": "nonpayable",
      "type": "function"
    },
    {
      "inputs": [
        {
          "internalType": "address",
          "name": "owner",
          "type": "address"
        }
      ],
      "name": "succeed",
      "outputs": [],
      "stateMutability": "nonpayable",
      "type": "function"
    },
    {
      "inputs": [
        {
          "internalType": "address",
          "name": "newOwner",
          "type": "address"
        }
      ],
      "name": "transferOwnership",
      "outputs": [],
      "stateMutability": "nonpayable",
      "type": "function"
    },
    {
      "inputs": [],
      "name": "unpause",
      "outputs": [],
      "stateMutability": "nonpayable",
      "type": "function"
    },
    {
      "inputs": [
        {
          "internalType": "address",
          "name": "address_",
          "type": "address"
        },
        {
          "internalType": "uint128",
          "name": "newInheritancePercentage",
          "type": "uint128"
        }
      ],
      "name": "updateBeneficiaryPercentage",
      "outputs": [],
      "stateMutability": "nonpayable",
      "type": "function"
    },
    {
      "inputs": [
        {
          "internalType": "uint128",
          "name": "newEstablishmentFeeRate",
          "type": "uint128"
        }
      ],
      "name": "updateEstablishmentFeeRate",
      "outputs": [],
      "stateMutability": "nonpayable",
      "type": "function"
    },
    {
      "inputs": [
        {
          "internalType": "uint128",
          "name": "newInactivityMaximum",
          "type": "uint128"
        }
      ],
      "name": "updateInactivityMaximum",
      "outputs": [],
      "stateMutability": "nonpayable",
      "type": "function"
    }
  ],
  "transactionHash": "0x38366e2e458ab5b95096a41e77659fc0d26ff2978d0793bbb22b2f1d94f87263",
  "args": [],
  "numDeployments": 1,
  "solcInputHash": "edce3fe1cc906518f49cb0b5055a96ab",
  "bytecode": "0x608060405234801561001057600080fd5b50612c34806100206000396000f3fe608060405234801561001057600080fd5b50600436106101425760003560e01c80638456cb59116100b8578063b22eb14a1161007c578063b22eb14a146102af578063c79440b8146102c2578063d48bfca7146102e3578063e6ac3cae146102f6578063ee032f7614610309578063f2fde38b1461031c57600080fd5b80638456cb591461025e5780638da5cb5b146102665780639b0d521e146102815780639f69093f14610289578063b0a985e71461029c57600080fd5b80634ac5c5591161010a5780634ac5c559146101e757806356db9ef11461020757806359633a1c1461021a5780635c975abb1461022d578063715018a6146102435780637b732d971461024b57600080fd5b80630b70b812146101475780630f34f64d1461015c578063257a34e41461019c5780633f4ba83a146101af578063451e214b146101b7575b600080fd5b61015a610155366004612356565b61032f565b005b61015a61016a36600461238f565b33600090815260986020526040902060010180546001600160801b0319166001600160801b0392909216919091179055565b61015a6101aa3660046124e6565b6107cb565b61015a61099d565b6101ca6101c5366004612356565b6109af565b6040516101de98979695949392919061269a565b60405180910390f35b6101fa6101f5366004612356565b610d1f565b6040516101de919061276c565b61015a61021536600461238f565b610d9b565b61015a610228366004612356565b610ed6565b60655460ff1660405190151581526020016101de565b61015a6110a4565b61015a61025936600461277f565b6110b6565b61015a6111d4565b6033546040516001600160a01b0390911681526020016101de565b61015a6111e4565b61015a610297366004612356565b61124f565b61015a6102aa36600461238f565b611371565b61015a6102bd366004612356565b6113ce565b6102d56102d0366004612356565b6115ab565b6040516101de92919061283b565b61015a6102f1366004612356565b611795565b61015a610304366004612356565b611809565b61015a6103173660046128ce565b611948565b61015a61032a366004612356565b611ab1565b6001600160a01b0381811660009081526098602052604090208054909116331461036c5760405163247edc9760e21b815260040160405180910390fd5b6001600160a01b038216600090815260986020526040902060018101546103a6906001600160801b0380821691600160801b900416612919565b6001600160801b03164210156103cf5760405163188ef90f60e01b815260040160405180910390fd5b6001600160a01b0383166000908152609860205260409020600281015460ff161561040d57604051637d170f0760e11b815260040160405180910390fd5b6001600160a01b038416600090815260986020526040812060028101805460ff19166001179055905b600482015481101561078757600082600001600401828154811061045c5761045c612944565b6000918252602082200154604051636eb1769f60e11b81526001600160a01b038a811660048301523060248301529091169250829063dd62ed3e9060440160206040518083038186803b1580156104b257600080fd5b505afa1580156104c6573d6000803e3d6000fd5b505050506040513d601f19601f820116820180604052508101906104ea919061295a565b6040516370a0823160e01b81526001600160a01b038a811660048301529192506001600160801b038316918416906370a082319060240160206040518083038186803b15801561053957600080fd5b505afa15801561054d573d6000803e3d6000fd5b505050506040513d601f19601f82011682018060405250810190610571919061295a565b10156105f3576040516370a0823160e01b81526001600160a01b0389811660048301528316906370a082319060240160206040518083038186803b1580156105b857600080fd5b505afa1580156105cc573d6000803e3d6000fd5b505050506040513d601f19601f820116820180604052508101906105f0919061295a565b90505b6000826001600160a01b031663313ce5676040518163ffffffff1660e01b815260040160206040518083038186803b15801561062e57600080fd5b505afa158015610642573d6000803e3d6000fd5b505050506040513d601f19601f820116820180604052508101906106669190612973565b905060006106806001600160801b03841660ff8416611b2a565b905060005b600387015481101561076f5760006106f068056bc75e2d631000006106e18a60000160030185815481106106bb576106bb612944565b60009182526020909120600260039092020101546001600160801b038781169116611b65565b6001600160801b031690611b7d565b905061075c8c89600001600301848154811061070e5761070e612944565b60009182526020909120600160039092020101546001600160a01b03166107416001600160801b03851660ff8916611b95565b6001600160a01b038a169291906001600160801b0316611bbe565b508061076781612996565b915050610685565b5050505050808061077f90612996565b915050610436565b506040516001600160a01b03861681527f357a23da712a8394b0f6db8584a5cda1594a487a94c8ddfd245d49db8572ad5d9060200160405180910390a15050505050565b336000908152609860205260409020546001600160a01b03161561080257604051633fa53c6960e21b815260040160405180910390fd5b6001600160a01b03831661082957604051637455f0d160e01b815260040160405180910390fd5b33600090815260986020526040812080546001600160a01b0319166001600160a01b0386161781556001600160801b03848116600160801b42831602176001830155609754600683018054919092166001600160801b0319909116179055905b82518110156109965760006001600160a01b03168382815181106108af576108af612944565b6020026020010151602001516001600160a01b031614156108e357604051637455f0d160e01b815260040160405180910390fd5b816000016003018382815181106108fc576108fc612944565b602090810291909101810151825460018101845560009384529282902081518051929460030290910192610935928492909101906121f7565b5060208201516001820180546001600160a01b0319166001600160a01b03909216919091179055604090910151600290910180546001600160801b0319166001600160801b039092169190911790558061098e81612996565b915050610889565b5050505050565b6109a5611c1e565b6109ad611c78565b565b6001600160a01b038116600090815260986020526040812060038101546060918391829182918591829182919067ffffffffffffffff8111156109f4576109f46123aa565b604051908082528060200260200182016040528015610a2757816020015b6060815260200190600190039081610a125790505b50600382015490945067ffffffffffffffff811115610a4857610a486123aa565b604051908082528060200260200182016040528015610a71578160200160208202803683370190505b50600382015490935067ffffffffffffffff811115610a9257610a926123aa565b604051908082528060200260200182016040528015610abb578160200160208202803683370190505b50915060005b6003820154811015610c685760038201805482908110610ae357610ae3612944565b90600052602060002090600302016000018054610aff906129b1565b80601f0160208091040260200160405190810160405280929190818152602001828054610b2b906129b1565b8015610b785780601f10610b4d57610100808354040283529160200191610b78565b820191906000526020600020905b815481529060010190602001808311610b5b57829003601f168201915b5050505050858281518110610b8f57610b8f612944565b6020026020010181905250816000016003018181548110610bb257610bb2612944565b906000526020600020906003020160010160009054906101000a90046001600160a01b0316848281518110610be957610be9612944565b6001600160a01b039092166020928302919091019091015260038201805482908110610c1757610c17612944565b600091825260209091206002600390920201015483516001600160801b0390911690849083908110610c4b57610c4b612944565b602090810291909101015280610c6081612996565b915050610ac1565b50805460018201546002830154600484018054604080516020808402820181019092528281526001600160a01b039096169592946001600160801b0380821695600160801b909204169360ff909116928b928b928b929091899190830182828015610cfc57602002820191906000526020600020905b81546001600160a01b03168152600190910190602001808311610cde575b505050505096509850985098509850985098509850985050919395975091939597565b6001600160a01b0381166000908152609860209081526040918290206005810180548451818502810185019095528085526060949293830182828015610d8e57602002820191906000526020600020905b81546001600160a01b03168152600190910190602001808311610d70575b5050505050915050919050565b600054610100900460ff1615808015610dbb5750600054600160ff909116105b80610dd55750303b158015610dd5575060005460ff166001145b610e3d5760405162461bcd60e51b815260206004820152602e60248201527f496e697469616c697a61626c653a20636f6e747261637420697320616c72656160448201526d191e481a5b9a5d1a585b1a5e995960921b60648201526084015b60405180910390fd5b6000805460ff191660011790558015610e60576000805461ff0019166101001790555b609780546001600160801b0319166001600160801b038416179055610e83611cca565b610e8b611cf9565b8015610ed2576000805461ff0019169055604051600181527f7f26b83ff96e1f2b6a682f133852f6798a09c465da95921460cefb3847402498906020015b60405180910390a15b5050565b336000908152609860205260408120905b600382015481101561106557826001600160a01b0316826000016003018281548110610f1557610f15612944565b60009182526020909120600160039092020101546001600160a01b0316141561105357600382018054610f4a906001906129ec565b81548110610f5a57610f5a612944565b9060005260206000209060030201826000016003018281548110610f8057610f80612944565b90600052602060002090600302016000820181600001908054610fa2906129b1565b610fad92919061227b565b5060018281015490820180546001600160a01b0319166001600160a01b03909216919091179055600291820154910180546001600160801b0319166001600160801b039092169190911790556003820180548061100c5761100c612a03565b6000828152602081206000199092019160038302019061102c82826122f6565b506001810180546001600160a01b031916905560020180546001600160801b031916905590555b8061105d81612996565b915050610ee7565b50604080513381526001600160a01b03841660208201527f1a6590bd0cabbfcc7c86bef99e1034054e179905cfcc294598fcd426c09224429101610ec9565b6110ac611c1e565b6109ad6000611d2c565b336000908152609860205260408120905b600382015481101561117957836001600160a01b03168260000160030182815481106110f5576110f5612944565b60009182526020909120600160039092020101546001600160a01b03161415611167578282600001600301828154811061113157611131612944565b906000526020600020906003020160020160006101000a8154816001600160801b0302191690836001600160801b031602179055505b8061117181612996565b9150506110c7565b50604080513381526001600160a01b03851660208201526001600160801b038416918101919091527f86fd4b450e7b4dab44cebd5802dfdf7ab2e8a7dce472f9ad65527a267d0d811e906060015b60405180910390a1505050565b6111dc611c1e565b6109ad611d7e565b336000818152609860209081526040918290206001810180546001600160801b03908116600160801b42928316908102919091179092558451958652928501529290917f55c9c5ee646e1aa94638dad0d79fc724747507090d67ec0eb580a299efa4e4699101610ec9565b336000908152609860205260408120905b600582015481101561136c57826001600160a01b031682600501828154811061128b5761128b612944565b6000918252602090912001546001600160a01b0316141561135a576005820180546112b8906001906129ec565b815481106112c8576112c8612944565b6000918252602090912001546005830180546001600160a01b0390921691839081106112f6576112f6612944565b9060005260206000200160006101000a8154816001600160a01b0302191690836001600160a01b031602179055508160050180548061133757611337612a03565b600082815260209020810160001990810180546001600160a01b03191690550190555b8061136481612996565b915050611260565b505050565b611379611c1e565b609780546001600160801b0319166001600160801b0383169081179091556040519081527f65b9616ef6956f93e9f5ff8c16600ea68f350f5a7837ba453db2e09ced449e63906020015b60405180910390a150565b6001600160a01b038116600090815260986020526040812090805b600583015481101561144a57336001600160a01b031683600501828154811061141457611414612944565b6000918252602090912001546001600160a01b03161415611438576001915061144a565b8061144281612996565b9150506113e9565b50806114695760405163247edc9760e21b815260040160405180910390fd5b6001600160a01b0383166000908152609860205260408120905b60048201548110156115635760008260000160040182815481106114a9576114a9612944565b6000918252602082200154604051636eb1769f60e11b81526001600160a01b0389811660048301523060248301529091169250829063dd62ed3e9060440160206040518083038186803b1580156114ff57600080fd5b505afa158015611513573d6000803e3d6000fd5b505050506040513d601f19601f82011682018060405250810190611537919061295a565b905061154e6001600160a01b038316883384611bbe565b5050808061155b90612996565b915050611483565b50604080516001600160a01b03861681523360208201527fc4af7c6b5a6348a0bc6868dcf4514413ca1fb528f1c2f9d69c333b32a9983b83910160405180910390a150505050565b6098602090815260009182526040808320815160c08101835281546001600160a01b0316815260018201546001600160801b0380821683870152600160801b9091041681840152600282015460ff161515606082015260038201805484518187028101870190955280855292959194869460808701949093909184015b82821015611718578382906000526020600020906003020160405180606001604052908160008201805461165b906129b1565b80601f0160208091040260200160405190810160405280929190818152602001828054611687906129b1565b80156116d45780601f106116a9576101008083540402835291602001916116d4565b820191906000526020600020905b8154815290600101906020018083116116b757829003601f168201915b50505091835250506001828101546001600160a01b03166020808401919091526002909301546001600160801b031660409092019190915291835292019101611628565b5050505081526020016004820180548060200260200160405190810160405280929190818152602001828054801561177957602002820191906000526020600020905b81546001600160a01b0316815260019091019060200180831161175b575b505050919092525050506006909101546001600160801b031682565b33600081815260986020908152604080832060040180546001810182559084529282902090920180546001600160a01b0319166001600160a01b0386169081179091558251938452908301527fdffbd9ded1c09446f09377de547142dcce7dc541c8b0b028142b1eba7026b9e791016113c3565b3360009081526098602052604090206001600160a01b03821661183f57604051637455f0d160e01b815260040160405180910390fd5b6001600160a01b03821633141561186957604051637e5c446160e01b815260040160405180910390fd5b60005b60058201548110156118dd57826001600160a01b031682600501828154811061189757611897612944565b6000918252602090912001546001600160a01b031614156118cb576040516337a0856f60e01b815260040160405180910390fd5b806118d581612996565b91505061186c565b5060058101805460018101825560009182526020918290200180546001600160a01b0319166001600160a01b03851690811790915560408051338152928301919091527faa63604f4f0678e8d82821d14382ce002287732869d0be7800c364d6ef3d0c4d9101610ec9565b3360009081526098602052604080822090830151909190611972906001600160801b031682612a19565b905060005b60038301548110156119d4576003830180548290811061199957611999612944565b60009182526020909120600260039092020101546119c0906001600160801b031683612a19565b9150806119cc81612996565b915050611977565b5060648111156119f7576040516380959c2b60e01b815260040160405180910390fd5b6003808301805460018101825560009182526020918290208651805188959390930290910192611a2c928492909101906121f7565b506020828101516001830180546001600160a01b0319166001600160a01b03928316179055604093840151600290930180546001600160801b0319166001600160801b03909416939093179092558581015183513381529216908201527fbb39c36a7502b7256e1a687254146a9a2ea7b146c77cb9e40eb0e2b8793781e191016111c7565b611ab9611c1e565b6001600160a01b038116611b1e5760405162461bcd60e51b815260206004820152602660248201527f4f776e61626c653a206e6577206f776e657220697320746865207a65726f206160448201526564647265737360d01b6064820152608401610e34565b611b2781611d2c565b50565b6000611b3782600a612b15565b611b52670de0b6b3a76400006001600160801b038616612b21565b611b5c9190612b40565b90505b92915050565b6000611b5c6001600160801b03848116908416611dbb565b6000611b5c6001600160801b03848116908416611e46565b6000670de0b6b3a7640000611bab83600a612b15565b611b52906001600160801b038616612b21565b604080516001600160a01b0385811660248301528416604482015260648082018490528251808303909101815260849091019091526020810180516001600160e01b03166323b872dd60e01b179052611c18908590611ee3565b50505050565b6033546001600160a01b031633146109ad5760405162461bcd60e51b815260206004820181905260248201527f4f776e61626c653a2063616c6c6572206973206e6f7420746865206f776e65726044820152606401610e34565b611c80611fb5565b6065805460ff191690557f5db9ee0a495bf2e6ff9c91a7834c1ba4fdd244a5e8aa4e537bd38aeae4b073aa335b6040516001600160a01b03909116815260200160405180910390a1565b600054610100900460ff16611cf15760405162461bcd60e51b8152600401610e3490612b62565b6109ad611ffe565b600054610100900460ff16611d205760405162461bcd60e51b8152600401610e3490612b62565b6065805460ff19169055565b603380546001600160a01b038381166001600160a01b0319831681179093556040519116919082907f8be0079c531659141344cd1fd0a4f28419497f9722a3daafe3b4186f6b6457e090600090a35050565b611d8661202e565b6065805460ff191660011790557f62e78cea01bee320cd4e420270b5ea74000d11b0c9f74754ebdbfc544b05a258611cad3390565b6000821580611dc8575081155b15611dd557506000611b5f565b81611de96002670de0b6b3a7640000612b40565b611df5906000196129ec565b611dff9190612b40565b831115611e1e5760405162a748d160e21b815260040160405180910390fd5b670de0b6b3a7640000611e32600282612b40565b611e3c8486612b21565b611b529190612a19565b600081611e66576040516308693c7b60e31b815260040160405180910390fd5b6000611e73600284612b40565b9050670de0b6b3a7640000611e8a826000196129ec565b611e949190612b40565b841115611eb35760405162a748d160e21b815260040160405180910390fd5b8281611ec7670de0b6b3a764000087612b21565b611ed19190612a19565b611edb9190612b40565b949350505050565b6000611f38826040518060400160405280602081526020017f5361666545524332303a206c6f772d6c6576656c2063616c6c206661696c6564815250856001600160a01b03166120749092919063ffffffff16565b80519091501561136c5780806020019051810190611f569190612bad565b61136c5760405162461bcd60e51b815260206004820152602a60248201527f5361666545524332303a204552433230206f7065726174696f6e20646964206e6044820152691bdd081cdd58d8d9595960b21b6064820152608401610e34565b60655460ff166109ad5760405162461bcd60e51b815260206004820152601460248201527314185d5cd8589b194e881b9bdd081c185d5cd95960621b6044820152606401610e34565b600054610100900460ff166120255760405162461bcd60e51b8152600401610e3490612b62565b6109ad33611d2c565b60655460ff16156109ad5760405162461bcd60e51b815260206004820152601060248201526f14185d5cd8589b194e881c185d5cd95960821b6044820152606401610e34565b6060612083848460008561208d565b90505b9392505050565b6060824710156120ee5760405162461bcd60e51b815260206004820152602660248201527f416464726573733a20696e73756666696369656e742062616c616e636520666f6044820152651c8818d85b1b60d21b6064820152608401610e34565b6001600160a01b0385163b6121455760405162461bcd60e51b815260206004820152601d60248201527f416464726573733a2063616c6c20746f206e6f6e2d636f6e74726163740000006044820152606401610e34565b600080866001600160a01b031685876040516121619190612bcf565b60006040518083038185875af1925050503d806000811461219e576040519150601f19603f3d011682016040523d82523d6000602084013e6121a3565b606091505b50915091506121b38282866121be565b979650505050505050565b606083156121cd575081612086565b8251156121dd5782518084602001fd5b8160405162461bcd60e51b8152600401610e349190612beb565b828054612203906129b1565b90600052602060002090601f016020900481019282612225576000855561226b565b82601f1061223e57805160ff191683800117855561226b565b8280016001018555821561226b579182015b8281111561226b578251825591602001919060010190612250565b5061227792915061232c565b5090565b828054612287906129b1565b90600052602060002090601f0160209004810192826122a9576000855561226b565b82601f106122ba578054855561226b565b8280016001018555821561226b57600052602060002091601f016020900482015b8281111561226b5782548255916001019190600101906122db565b508054612302906129b1565b6000825580601f10612312575050565b601f016020900490600052602060002090810190611b2791905b5b80821115612277576000815560010161232d565b6001600160a01b0381168114611b2757600080fd5b60006020828403121561236857600080fd5b813561208681612341565b80356001600160801b038116811461238a57600080fd5b919050565b6000602082840312156123a157600080fd5b611b5c82612373565b634e487b7160e01b600052604160045260246000fd5b6040516060810167ffffffffffffffff811182821017156123e3576123e36123aa565b60405290565b604051601f8201601f1916810167ffffffffffffffff81118282101715612412576124126123aa565b604052919050565b803561238a81612341565b60006060828403121561243757600080fd5b61243f6123c0565b9050813567ffffffffffffffff8082111561245957600080fd5b818401915084601f83011261246d57600080fd5b8135602082821115612481576124816123aa565b612493601f8301601f191682016123e9565b925081835286818386010111156124a957600080fd5b818185018285013760008183850101528285526124c781870161241a565b81860152505050506124db60408301612373565b604082015292915050565b6000806000606084860312156124fb57600080fd5b833561250681612341565b92506020612515858201612373565b9250604085013567ffffffffffffffff8082111561253257600080fd5b818701915087601f83011261254657600080fd5b813581811115612558576125586123aa565b8060051b6125678582016123e9565b918252838101850191858101908b84111561258157600080fd5b86860192505b838310156125bd5782358581111561259f5760008081fd5b6125ad8d89838a0101612425565b8352509186019190860190612587565b809750505050505050509250925092565b600081518084526020808501945080840160005b838110156126075781516001600160a01b0316875295820195908201906001016125e2565b509495945050505050565b60005b8381101561262d578181015183820152602001612615565b83811115611c185750506000910152565b60008151808452612656816020860160208601612612565b601f01601f19169290920160200192915050565b600081518084526020808501945080840160005b838110156126075781518752958201959082019060010161267e565b6001600160a01b03891681526101006020808301829052600091906126c18483018c6125ce565b6001600160801b038b811660408701528a166060860152881515608086015284810360a0860152875180825290925081830190600581901b84018301838a0160005b8381101561273157601f1987840301855261271f83835161263e565b94860194925090850190600101612703565b505086810360c0880152612745818a6125ce565b94505050505082810360e084015261275d818561266a565b9b9a5050505050505050505050565b602081526000611b5c60208301846125ce565b6000806040838503121561279257600080fd5b823561279d81612341565b91506127ab60208401612373565b90509250929050565b600081518084526020808501808196508360051b8101915082860160005b8581101561282e5782840389528151606081518187526127f48288018261263e565b838901516001600160a01b0316888a01526040938401516001600160801b03169390970192909252505097840197908401906001016127d2565b5091979650505050505050565b6040815260018060a01b038351166040820152600060208401516001600160801b03808216606085015280604087015116608085015250506060840151151560a0830152608084015160c0808401526128986101008401826127b4565b905060a0850151603f198483030160e08501526128b582826125ce565b9250505061208660208301846001600160801b03169052565b6000602082840312156128e057600080fd5b813567ffffffffffffffff8111156128f757600080fd5b611edb84828501612425565b634e487b7160e01b600052601160045260246000fd5b60006001600160801b0380831681851680830382111561293b5761293b612903565b01949350505050565b634e487b7160e01b600052603260045260246000fd5b60006020828403121561296c57600080fd5b5051919050565b60006020828403121561298557600080fd5b815160ff8116811461208657600080fd5b60006000198214156129aa576129aa612903565b5060010190565b600181811c908216806129c557607f821691505b602082108114156129e657634e487b7160e01b600052602260045260246000fd5b50919050565b6000828210156129fe576129fe612903565b500390565b634e487b7160e01b600052603160045260246000fd5b60008219821115612a2c57612a2c612903565b500190565b600181815b80851115612a6c578160001904821115612a5257612a52612903565b80851615612a5f57918102915b93841c9390800290612a36565b509250929050565b600082612a8357506001611b5f565b81612a9057506000611b5f565b8160018114612aa65760028114612ab057612acc565b6001915050611b5f565b60ff841115612ac157612ac1612903565b50506001821b611b5f565b5060208310610133831016604e8410600b8410161715612aef575081810a611b5f565b612af98383612a31565b8060001904821115612b0d57612b0d612903565b029392505050565b6000611b5c8383612a74565b6000816000190483118215151615612b3b57612b3b612903565b500290565b600082612b5d57634e487b7160e01b600052601260045260246000fd5b500490565b6020808252602b908201527f496e697469616c697a61626c653a20636f6e7472616374206973206e6f74206960408201526a6e697469616c697a696e6760a81b606082015260800190565b600060208284031215612bbf57600080fd5b8151801515811461208657600080fd5b60008251612be1818460208701612612565b9190910192915050565b602081526000611b5c602083018461263e56fea264697066735822122063218ea583416592ec8c6ce91ef7ed163d22a7c2cea5a0c3c6bef6ebe5d1de3864736f6c63430008080033",
  "devdoc": {
    "author": "Peace Foundation",
    "kind": "dev",
    "methods": {
      "addBackup(address)": {
        "params": {
          "backupAddress": "The address to add"
        }
      },
      "addBeneficiary((string,address,uint128))": {
        "details": "The addeed percentage of the beneficiaries should not exceed 100%The total maximum percentage should be 100%",
        "params": {
          "beneficiary": "The beneficiary to add"
        }
      },
      "addToken(address)": {
        "details": "there is no function to remove a token since that can be done by decreasing the allowance of this contract. Doing otherwise would be expensive and unnecessary",
        "params": {
          "token": "The token to be added to the protected tokens list"
        }
      },
      "createTestament(address,uint128,(string,address,uint128)[])": {
        "details": "The beneficiaries percentages should be with an 18 decimals precision to allow for percentages with decimalsThe beneficiaries percentages should add up to 100%",
        "params": {
          "beneficiaries": "The beneficiaries that will inherit the vault",
          "inactivityMaximum": "The maximum inactivity time"
        }
      },
      "getBackupAddresses(address)": {
        "params": {
          "owner": "The owner of the dynamic vault"
        },
        "returns": {
          "_0": "backupAddresses The backup addresses"
        }
      },
      "getTestamentParameters(address)": {
        "params": {
          "owner": "The owner of the dynamic vault"
        },
        "returns": {
          "claimant": "The claimant of the dynamic vault",
          "inactivityMaximum": "The maximum inactivity time",
          "proofOfLife": "The last registred proof of life timestamp",
          "succeeded": "Whether the dynamic vault has been succeeded",
          "tokens": "The approved tokens"
        }
      },
      "owner()": {
        "details": "Returns the address of the current owner."
      },
      "paused()": {
        "details": "Returns true if the contract is paused, and false otherwise."
      },
      "removeBackup(address)": {
        "params": {
          "backupAddress": "The address to remove"
        }
      },
      "removeBeneficiary(address)": {
        "params": {
          "address_": "The beneficiary to remove"
        }
      },
      "renounceOwnership()": {
        "details": "Leaves the contract without owner. It will not be possible to call `onlyOwner` functions anymore. Can only be called by the current owner. NOTE: Renouncing ownership will leave the contract without an owner, thereby removing any functionality that is only available to the owner."
      },
      "repossessAccount(address)": {
        "params": {
          "owner": "The owner of the dynamic vault"
        }
      },
      "succeed(address)": {
        "details": "The function can only be called after the inactivity period is over",
        "params": {
          "owner": "The owner of the dynamic vault"
        }
      },
      "transferOwnership(address)": {
        "details": "Transfers ownership of the contract to a new account (`newOwner`). Can only be called by the current owner."
      },
      "updateBeneficiaryPercentage(address,uint128)": {
        "params": {
          "address_": "The address of the beneficiary",
          "newInheritancePercentage": "The new inheritance percentage"
        }
      },
      "updateInactivityMaximum(uint128)": {
        "params": {
          "newInactivityMaximum": "The new inactivity time"
        }
      }
    },
    "title": "DynamicVaults",
    "version": 1
  },
  "userdoc": {
    "kind": "user",
    "methods": {
      "addBackup(address)": {
        "notice": "Adds backup address"
      },
      "addBeneficiary((string,address,uint128))": {
        "notice": "Adds beneficiary to thedynamicVault"
      },
      "addToken(address)": {
        "notice": "Adds a token to thedynamicVault "
      },
      "createTestament(address,uint128,(string,address,uint128)[])": {
        "notice": "Creates a dynamic vault"
      },
      "getBackupAddresses(address)": {
        "notice": "Returns the backup addresses of a given dynamic vault id"
      },
      "getTestamentParameters(address)": {
        "notice": "Returns the testament parameters of a given dynamic vault id"
      },
      "pause()": {
        "notice": "Stops all actions on all vaults"
      },
      "removeBackup(address)": {
        "notice": "Removes backup address"
      },
      "removeBeneficiary(address)": {
        "notice": "Removes beneficiary from the vault"
      },
      "repossessAccount(address)": {
        "notice": "Transfers the protected tokens to the backup address"
      },
      "signalLife()": {
        "notice": "Updates the proof of life timestamp"
      },
      "succeed(address)": {
        "notice": "Transfers the tokens to the beneficiaries"
      },
      "unpause()": {
        "notice": "Unpause vaults. Makes actions available again on all vaults*"
      },
      "updateBeneficiaryPercentage(address,uint128)": {
        "notice": "Updates the inheritance percentage of a beneficiary"
      },
      "updateEstablishmentFeeRate(uint128)": {
        "notice": "Sets the global establishment fee rate*"
      },
      "updateInactivityMaximum(uint128)": {
        "notice": "Updates the inactivity time of thedynamicVault "
      }
    },
    "notice": "Dyanmic vaults contract that allows for the transfer of tokens in case of emergency",
    "version": 1
  },
  "storageLayout": {
    "storage": [
      {
        "astId": 138,
        "contract": "contracts/DynamicVaults.sol:DynamicVaults",
        "label": "_initialized",
        "offset": 0,
        "slot": "0",
        "type": "t_uint8"
      },
      {
        "astId": 141,
        "contract": "contracts/DynamicVaults.sol:DynamicVaults",
        "label": "_initializing",
        "offset": 1,
        "slot": "0",
        "type": "t_bool"
      },
      {
        "astId": 752,
        "contract": "contracts/DynamicVaults.sol:DynamicVaults",
        "label": "__gap",
        "offset": 0,
        "slot": "1",
        "type": "t_array(t_uint256)50_storage"
      },
      {
        "astId": 10,
        "contract": "contracts/DynamicVaults.sol:DynamicVaults",
        "label": "_owner",
        "offset": 0,
        "slot": "51",
        "type": "t_address"
      },
      {
        "astId": 130,
        "contract": "contracts/DynamicVaults.sol:DynamicVaults",
        "label": "__gap",
        "offset": 0,
        "slot": "52",
        "type": "t_array(t_uint256)49_storage"
      },
      {
        "astId": 321,
        "contract": "contracts/DynamicVaults.sol:DynamicVaults",
        "label": "_paused",
        "offset": 0,
        "slot": "101",
        "type": "t_bool"
      },
      {
        "astId": 426,
        "contract": "contracts/DynamicVaults.sol:DynamicVaults",
        "label": "__gap",
        "offset": 0,
        "slot": "102",
        "type": "t_array(t_uint256)49_storage"
      },
      {
        "astId": 2107,
        "contract": "contracts/DynamicVaults.sol:DynamicVaults",
        "label": "establishmentFeeRate",
        "offset": 0,
        "slot": "151",
        "type": "t_uint128"
      },
      {
        "astId": 2112,
        "contract": "contracts/DynamicVaults.sol:DynamicVaults",
        "label": "dynamicVaults",
        "offset": 0,
        "slot": "152",
        "type": "t_mapping(t_address,t_struct(DynamicVault)3536_storage)"
      }
    ],
    "types": {
      "t_address": {
        "encoding": "inplace",
        "label": "address",
        "numberOfBytes": "20"
      },
      "t_address_payable": {
        "encoding": "inplace",
        "label": "address payable",
        "numberOfBytes": "20"
      },
      "t_array(t_address)dyn_storage": {
        "base": "t_address",
        "encoding": "dynamic_array",
        "label": "address[]",
        "numberOfBytes": "32"
      },
      "t_array(t_struct(Beneficiary)3511_storage)dyn_storage": {
        "base": "t_struct(Beneficiary)3511_storage",
        "encoding": "dynamic_array",
        "label": "struct Types.Beneficiary[]",
        "numberOfBytes": "32"
      },
      "t_array(t_uint256)49_storage": {
        "base": "t_uint256",
        "encoding": "inplace",
        "label": "uint256[49]",
        "numberOfBytes": "1568"
      },
      "t_array(t_uint256)50_storage": {
        "base": "t_uint256",
        "encoding": "inplace",
        "label": "uint256[50]",
        "numberOfBytes": "1600"
      },
      "t_bool": {
        "encoding": "inplace",
        "label": "bool",
        "numberOfBytes": "1"
      },
      "t_mapping(t_address,t_struct(DynamicVault)3536_storage)": {
        "encoding": "mapping",
        "key": "t_address",
        "label": "mapping(address => struct Types.DynamicVault)",
        "numberOfBytes": "32",
        "value": "t_struct(DynamicVault)3536_storage"
      },
      "t_string_storage": {
        "encoding": "bytes",
        "label": "string",
        "numberOfBytes": "32"
      },
      "t_struct(Beneficiary)3511_storage": {
        "encoding": "inplace",
        "label": "struct Types.Beneficiary",
        "members": [
          {
            "astId": 3506,
            "contract": "contracts/DynamicVaults.sol:DynamicVaults",
            "label": "name",
            "offset": 0,
            "slot": "0",
            "type": "t_string_storage"
          },
          {
            "astId": 3508,
            "contract": "contracts/DynamicVaults.sol:DynamicVaults",
            "label": "address_",
            "offset": 0,
            "slot": "1",
            "type": "t_address_payable"
          },
          {
            "astId": 3510,
            "contract": "contracts/DynamicVaults.sol:DynamicVaults",
            "label": "inheritancePercentage",
            "offset": 0,
            "slot": "2",
            "type": "t_uint128"
          }
        ],
        "numberOfBytes": "96"
      },
      "t_struct(DynamicVault)3536_storage": {
        "encoding": "inplace",
        "label": "struct Types.DynamicVault",
        "members": [
          {
            "astId": 3530,
            "contract": "contracts/DynamicVaults.sol:DynamicVaults",
            "label": "testament",
            "offset": 0,
            "slot": "0",
            "type": "t_struct(Testament)3527_storage"
          },
          {
            "astId": 3533,
            "contract": "contracts/DynamicVaults.sol:DynamicVaults",
            "label": "backupAddresses",
            "offset": 0,
            "slot": "5",
            "type": "t_array(t_address)dyn_storage"
          },
          {
            "astId": 3535,
            "contract": "contracts/DynamicVaults.sol:DynamicVaults",
            "label": "ESTABLISHMENT_FEE_RATE",
            "offset": 0,
            "slot": "6",
            "type": "t_uint128"
          }
        ],
        "numberOfBytes": "224"
      },
      "t_struct(Testament)3527_storage": {
        "encoding": "inplace",
        "label": "struct Types.Testament",
        "members": [
          {
            "astId": 3513,
            "contract": "contracts/DynamicVaults.sol:DynamicVaults",
            "label": "claimant",
            "offset": 0,
            "slot": "0",
            "type": "t_address"
          },
          {
            "astId": 3515,
            "contract": "contracts/DynamicVaults.sol:DynamicVaults",
            "label": "inactivityMaximum",
            "offset": 0,
            "slot": "1",
            "type": "t_uint128"
          },
          {
            "astId": 3517,
            "contract": "contracts/DynamicVaults.sol:DynamicVaults",
            "label": "proofOfLife",
            "offset": 16,
            "slot": "1",
            "type": "t_uint128"
          },
          {
            "astId": 3519,
            "contract": "contracts/DynamicVaults.sol:DynamicVaults",
            "label": "succeeded",
            "offset": 0,
            "slot": "2",
            "type": "t_bool"
          },
          {
            "astId": 3523,
            "contract": "contracts/DynamicVaults.sol:DynamicVaults",
            "label": "beneficiaries",
            "offset": 0,
            "slot": "3",
            "type": "t_array(t_struct(Beneficiary)3511_storage)dyn_storage"
          },
          {
            "astId": 3526,
            "contract": "contracts/DynamicVaults.sol:DynamicVaults",
            "label": "tokens",
            "offset": 0,
            "slot": "4",
            "type": "t_array(t_address)dyn_storage"
          }
        ],
        "numberOfBytes": "160"
      },
      "t_uint128": {
        "encoding": "inplace",
        "label": "uint128",
        "numberOfBytes": "16"
      },
      "t_uint256": {
        "encoding": "inplace",
        "label": "uint256",
        "numberOfBytes": "32"
      },
      "t_uint8": {
        "encoding": "inplace",
        "label": "uint8",
        "numberOfBytes": "1"
      }
    }
  }
}