{
  "address": "0x7b7f0Aa5149dE4e6B0b1460fB13888f01dfff931",
  "abi": [
    {
      "inputs": [],
      "name": "MATH_DIVISION_BY_ZERO",
      "type": "error"
    },
    {
      "inputs": [],
      "name": "MATH_MULTIPLICATION_OVERFLOW",
      "type": "error"
    },
    {
      "inputs": [],
      "name": "T_ADDRESS_ZERO",
      "type": "error"
    },
    {
      "inputs": [],
      "name": "T_BACKUP_ADDRESS_ALREADY_EXISTS",
      "type": "error"
    },
    {
      "inputs": [],
      "name": "T_BACKUP_ADDRESS_IS_OWNER",
      "type": "error"
    },
    {
      "inputs": [],
      "name": "T_CANCELED",
      "type": "error"
    },
    {
      "inputs": [],
      "name": "T_INHERITANCE_PERCENTAGE_EXCEEDED",
      "type": "error"
    },
    {
      "inputs": [],
      "name": "T_NO_TRANSCENDENCE",
      "type": "error"
    },
    {
      "inputs": [],
      "name": "T_SUCCEEDED",
      "type": "error"
    },
    {
      "inputs": [],
      "name": "T_TESTAMENT_ALREADY_EXISTS",
      "type": "error"
    },
    {
      "inputs": [],
      "name": "T_UNAUTHORIZED",
      "type": "error"
    },
    {
      "anonymous": false,
      "inputs": [
        {
          "indexed": false,
          "internalType": "address",
          "name": "owner",
          "type": "address"
        },
        {
          "indexed": false,
          "internalType": "address",
          "name": "backupAddress",
          "type": "address"
        }
      ],
      "name": "BackupAdded",
      "type": "event"
    },
    {
      "anonymous": false,
      "inputs": [
        {
          "indexed": false,
          "internalType": "address",
          "name": "owner",
          "type": "address"
        },
        {
          "components": [
            {
              "internalType": "string",
              "name": "name",
              "type": "string"
            },
            {
              "internalType": "address payable",
              "name": "address_",
              "type": "address"
            },
            {
              "internalType": "uint128",
              "name": "inheritancePercentage",
              "type": "uint128"
            }
          ],
          "indexed": false,
          "internalType": "struct Types.Beneficiary[]",
          "name": "beneficiaries",
          "type": "tuple[]"
        }
      ],
      "name": "BeneficiariesUpdated",
      "type": "event"
    },
    {
      "anonymous": false,
      "inputs": [
        {
          "indexed": false,
          "internalType": "address",
          "name": "owner",
          "type": "address"
        },
        {
          "indexed": false,
          "internalType": "address",
          "name": "beneficiary",
          "type": "address"
        }
      ],
      "name": "BeneficiaryAdded",
      "type": "event"
    },
    {
      "anonymous": false,
      "inputs": [
        {
          "indexed": false,
          "internalType": "address",
          "name": "owner",
          "type": "address"
        },
        {
          "indexed": false,
          "internalType": "address",
          "name": "beneficiaryAddress",
          "type": "address"
        },
        {
          "indexed": false,
          "internalType": "uint128",
          "name": "newInheritancePercentage",
          "type": "uint128"
        }
      ],
      "name": "BeneficiaryPercentageUpdated",
      "type": "event"
    },
    {
      "anonymous": false,
      "inputs": [
        {
          "indexed": false,
          "internalType": "address",
          "name": "owner",
          "type": "address"
        },
        {
          "indexed": false,
          "internalType": "address",
          "name": "beneficiary",
          "type": "address"
        }
      ],
      "name": "BeneficiaryRemoved",
      "type": "event"
    },
    {
      "anonymous": false,
      "inputs": [
        {
          "indexed": false,
          "internalType": "uint128",
          "name": "newEstablishmentFeeRate",
          "type": "uint128"
        }
      ],
      "name": "EstablishmentFeeRateUpdated",
      "type": "event"
    },
    {
      "anonymous": false,
      "inputs": [
        {
          "indexed": false,
          "internalType": "uint8",
          "name": "version",
          "type": "uint8"
        }
      ],
      "name": "Initialized",
      "type": "event"
    },
    {
      "anonymous": false,
      "inputs": [
        {
          "indexed": true,
          "internalType": "address",
          "name": "previousOwner",
          "type": "address"
        },
        {
          "indexed": true,
          "internalType": "address",
          "name": "newOwner",
          "type": "address"
        }
      ],
      "name": "OwnershipTransferred",
      "type": "event"
    },
    {
      "anonymous": false,
      "inputs": [
        {
          "indexed": false,
          "internalType": "address",
          "name": "account",
          "type": "address"
        }
      ],
      "name": "Paused",
      "type": "event"
    },
    {
      "anonymous": false,
      "inputs": [
        {
          "indexed": false,
          "internalType": "address",
          "name": "owner",
          "type": "address"
        },
        {
          "indexed": false,
          "internalType": "uint128",
          "name": "timestamp",
          "type": "uint128"
        }
      ],
      "name": "ProofOfLifeUpdated",
      "type": "event"
    },
    {
      "anonymous": false,
      "inputs": [
        {
          "indexed": false,
          "internalType": "address",
          "name": "owner",
          "type": "address"
        }
      ],
      "name": "TestamentCanceled",
      "type": "event"
    },
    {
      "anonymous": false,
      "inputs": [
        {
          "indexed": false,
          "internalType": "address",
          "name": "owner",
          "type": "address"
        }
      ],
      "name": "TestamentSucceeded",
      "type": "event"
    },
    {
      "anonymous": false,
      "inputs": [
        {
          "indexed": false,
          "internalType": "address",
          "name": "owner",
          "type": "address"
        },
        {
          "indexed": false,
          "internalType": "address",
          "name": "token",
          "type": "address"
        }
      ],
      "name": "TokenAdded",
      "type": "event"
    },
    {
      "anonymous": false,
      "inputs": [
        {
          "indexed": false,
          "internalType": "address",
          "name": "account",
          "type": "address"
        }
      ],
      "name": "Unpaused",
      "type": "event"
    },
    {
      "anonymous": false,
      "inputs": [
        {
          "indexed": false,
          "internalType": "address",
          "name": "owner",
          "type": "address"
        },
        {
          "indexed": false,
          "internalType": "address",
          "name": "backupAddress",
          "type": "address"
        }
      ],
      "name": "accountRepossessed",
      "type": "event"
    },
    {
      "inputs": [
        {
          "internalType": "address",
          "name": "backupAddress",
          "type": "address"
        }
      ],
      "name": "addBackup",
      "outputs": [],
      "stateMutability": "nonpayable",
      "type": "function"
    },
    {
      "inputs": [
        {
          "components": [
            {
              "internalType": "string",
              "name": "name",
              "type": "string"
            },
            {
              "internalType": "address payable",
              "name": "address_",
              "type": "address"
            },
            {
              "internalType": "uint128",
              "name": "inheritancePercentage",
              "type": "uint128"
            }
          ],
          "internalType": "struct Types.Beneficiary",
          "name": "beneficiary",
          "type": "tuple"
        }
      ],
      "name": "addBeneficiary",
      "outputs": [],
      "stateMutability": "nonpayable",
      "type": "function"
    },
    {
      "inputs": [
        {
          "internalType": "address",
          "name": "token",
          "type": "address"
        }
      ],
      "name": "addToken",
      "outputs": [],
      "stateMutability": "nonpayable",
      "type": "function"
    },
    {
      "inputs": [],
      "name": "cancelTestament",
      "outputs": [],
      "stateMutability": "nonpayable",
      "type": "function"
    },
    {
      "inputs": [
        {
          "internalType": "address",
          "name": "claimant",
          "type": "address"
        },
        {
          "internalType": "uint128",
          "name": "inactivityMaximum",
          "type": "uint128"
        },
        {
          "components": [
            {
              "internalType": "string",
              "name": "name",
              "type": "string"
            },
            {
              "internalType": "address payable",
              "name": "address_",
              "type": "address"
            },
            {
              "internalType": "uint128",
              "name": "inheritancePercentage",
              "type": "uint128"
            }
          ],
          "internalType": "struct Types.Beneficiary[]",
          "name": "beneficiaries",
          "type": "tuple[]"
        }
      ],
      "name": "createTestament",
      "outputs": [],
      "stateMutability": "nonpayable",
      "type": "function"
    },
    {
      "inputs": [
        {
          "internalType": "address",
          "name": "",
          "type": "address"
        }
      ],
      "name": "dynamicVaults",
      "outputs": [
        {
          "components": [
            {
              "internalType": "address",
              "name": "claimant",
              "type": "address"
            },
            {
              "internalType": "uint128",
              "name": "inactivityMaximum",
              "type": "uint128"
            },
            {
              "internalType": "uint128",
              "name": "proofOfLife",
              "type": "uint128"
            },
            {
              "internalType": "bool",
              "name": "succeeded",
              "type": "bool"
            },
            {
              "components": [
                {
                  "internalType": "string",
                  "name": "name",
                  "type": "string"
                },
                {
                  "internalType": "address payable",
                  "name": "address_",
                  "type": "address"
                },
                {
                  "internalType": "uint128",
                  "name": "inheritancePercentage",
                  "type": "uint128"
                }
              ],
              "internalType": "struct Types.Beneficiary[]",
              "name": "beneficiaries",
              "type": "tuple[]"
            },
            {
              "internalType": "address[]",
              "name": "tokens",
              "type": "address[]"
            },
            {
              "internalType": "bool",
              "name": "canceled",
              "type": "bool"
            }
          ],
          "internalType": "struct Types.Testament",
          "name": "testament",
          "type": "tuple"
        },
        {
          "internalType": "uint128",
          "name": "ESTABLISHMENT_FEE_RATE",
          "type": "uint128"
        }
      ],
      "stateMutability": "view",
      "type": "function"
    },
    {
      "inputs": [
        {
          "internalType": "address",
          "name": "owner",
          "type": "address"
        }
      ],
      "name": "getBackupAddresses",
      "outputs": [
        {
          "internalType": "address[]",
          "name": "",
          "type": "address[]"
        }
      ],
      "stateMutability": "view",
      "type": "function"
    },
    {
      "inputs": [
        {
          "internalType": "address",
          "name": "owner",
          "type": "address"
        }
      ],
      "name": "getTestamentParameters",
      "outputs": [
        {
          "internalType": "address",
          "name": "claimant",
          "type": "address"
        },
        {
          "internalType": "address[]",
          "name": "tokens",
          "type": "address[]"
        },
        {
          "internalType": "uint128",
          "name": "inactivityMaximum",
          "type": "uint128"
        },
        {
          "internalType": "uint128",
          "name": "proofOfLife",
          "type": "uint128"
        },
        {
          "internalType": "bool",
          "name": "succeeded",
          "type": "bool"
        },
        {
          "internalType": "string[]",
          "name": "beneficiariesNames",
          "type": "string[]"
        },
        {
          "internalType": "address[]",
          "name": "beneficiariesAddresses",
          "type": "address[]"
        },
        {
          "internalType": "uint256[]",
          "name": "beneficiariesInheritancePercentages",
          "type": "uint256[]"
        }
      ],
      "stateMutability": "view",
      "type": "function"
    },
    {
      "inputs": [
        {
          "internalType": "uint128",
          "name": "establishmentFeeRate_",
          "type": "uint128"
        }
      ],
      "name": "initialize",
      "outputs": [],
      "stateMutability": "nonpayable",
      "type": "function"
    },
    {
      "inputs": [],
      "name": "owner",
      "outputs": [
        {
          "internalType": "address",
          "name": "",
          "type": "address"
        }
      ],
      "stateMutability": "view",
      "type": "function"
    },
    {
      "inputs": [],
      "name": "pause",
      "outputs": [],
      "stateMutability": "nonpayable",
      "type": "function"
    },
    {
      "inputs": [],
      "name": "paused",
      "outputs": [
        {
          "internalType": "bool",
          "name": "",
          "type": "bool"
        }
      ],
      "stateMutability": "view",
      "type": "function"
    },
    {
      "inputs": [
        {
          "internalType": "address",
          "name": "backupAddress",
          "type": "address"
        }
      ],
      "name": "removeBackup",
      "outputs": [],
      "stateMutability": "nonpayable",
      "type": "function"
    },
    {
      "inputs": [
        {
          "internalType": "address",
          "name": "address_",
          "type": "address"
        }
      ],
      "name": "removeBeneficiary",
      "outputs": [],
      "stateMutability": "nonpayable",
      "type": "function"
    },
    {
      "inputs": [],
      "name": "renounceOwnership",
      "outputs": [],
      "stateMutability": "nonpayable",
      "type": "function"
    },
    {
      "inputs": [
        {
          "internalType": "address",
          "name": "owner",
          "type": "address"
        }
      ],
      "name": "repossessAccount",
      "outputs": [],
      "stateMutability": "nonpayable",
      "type": "function"
    },
    {
      "inputs": [],
      "name": "signalLife",
      "outputs": [],
      "stateMutability": "nonpayable",
      "type": "function"
    },
    {
      "inputs": [
        {
          "internalType": "address",
          "name": "owner",
          "type": "address"
        }
      ],
      "name": "succeed",
      "outputs": [],
      "stateMutability": "nonpayable",
      "type": "function"
    },
    {
      "inputs": [
        {
          "internalType": "address",
          "name": "newOwner",
          "type": "address"
        }
      ],
      "name": "transferOwnership",
      "outputs": [],
      "stateMutability": "nonpayable",
      "type": "function"
    },
    {
      "inputs": [],
      "name": "unpause",
      "outputs": [],
      "stateMutability": "nonpayable",
      "type": "function"
    },
    {
      "inputs": [
        {
          "internalType": "string[]",
          "name": "names",
          "type": "string[]"
        },
        {
          "internalType": "address[]",
          "name": "addresses",
          "type": "address[]"
        },
        {
          "internalType": "uint128[]",
          "name": "newInheritancePercentages",
          "type": "uint128[]"
        },
        {
          "internalType": "uint128[]",
          "name": "indexes",
          "type": "uint128[]"
        }
      ],
      "name": "updateBeneficiaries",
      "outputs": [],
      "stateMutability": "nonpayable",
      "type": "function"
    },
    {
      "inputs": [
        {
          "internalType": "uint128",
          "name": "newEstablishmentFeeRate",
          "type": "uint128"
        }
      ],
      "name": "updateEstablishmentFeeRate",
      "outputs": [],
      "stateMutability": "nonpayable",
      "type": "function"
    },
    {
      "inputs": [
        {
          "internalType": "uint128",
          "name": "newInactivityMaximum",
          "type": "uint128"
        }
      ],
      "name": "updateInactivityMaximum",
      "outputs": [],
      "stateMutability": "nonpayable",
      "type": "function"
    }
  ],
  "transactionHash": "0xd317c0d4bc0bee17de80f7191e3daf41fdaad10a1bfd583f6d17263c50cc460d",
  "args": [],
  "numDeployments": 5,
  "solcInputHash": "4344b9b9820cffa39567536b328c8e03",
  "bytecode": "0x608060405234801561001057600080fd5b506131fe806100206000396000f3fe608060405234801561001057600080fd5b506004361061014d5760003560e01c8063715018a6116100c3578063b22eb14a1161007c578063b22eb14a146102c2578063c79440b8146102d5578063d48bfca7146102f6578063e6ac3cae14610309578063ee032f761461031c578063f2fde38b1461032f57600080fd5b8063715018a6146102695780638456cb59146102715780638da5cb5b146102795780639b0d521e146102945780639f69093f1461029c578063b0a985e7146102af57600080fd5b8063451e214b11610115578063451e214b146101ca5780634ac5c559146101fa57806356db9ef11461021a57806359633a1c1461022d5780635b5af79a146102405780635c975abb1461025357600080fd5b80630b70b812146101525780630f34f64d146101675780631aba6da6146101a7578063257a34e4146101af5780633f4ba83a146101c2575b600080fd5b610165610160366004612677565b610342565b005b6101656101753660046126b0565b33600090815260986020526040902060010180546001600160801b0319166001600160801b0392909216919091179055565b61016561081d565b6101656101bd36600461282f565b610872565b610165610a65565b6101dd6101d8366004612677565b610a77565b6040516101f19897969594939291906129d6565b60405180910390f35b61020d610208366004612677565b610de7565b6040516101f19190612aa8565b6101656102283660046126b0565b610e63565b61016561023b366004612677565b610f9e565b61016561024e366004612b07565b61116c565b60655460ff1660405190151581526020016101f1565b6101656114d2565b6101656114e4565b6033546040516001600160a01b0390911681526020016101f1565b6101656114f4565b6101656102aa366004612677565b61155f565b6101656102bd3660046126b0565b611681565b6101656102d0366004612677565b6116d7565b6102e86102e3366004612677565b6118b4565b6040516101f1929190612cb9565b610165610304366004612677565b611aae565b610165610317366004612677565b611b22565b61016561032a366004612d64565b611c61565b61016561033d366004612677565b611dd2565b6001600160a01b0381811660009081526098602052604090208054909116331461037f5760405163247edc9760e21b815260040160405180910390fd5b6001600160a01b038216600090815260986020526040902060018101546103b9906001600160801b0380821691600160801b900416612daf565b6001600160801b03164210156103e25760405163188ef90f60e01b815260040160405180910390fd5b6001600160a01b0383166000908152609860205260409020600281015460ff161561042057604051637d170f0760e11b815260040160405180910390fd5b6001600160a01b0384166000908152609860205260409020600581015460ff161561045e576040516308b0d32b60e21b815260040160405180910390fd5b6001600160a01b038516600090815260986020526040812060028101805460ff19166001179055905b60048201548110156107d85760008260000160040182815481106104ad576104ad612dda565b6000918252602082200154604051636eb1769f60e11b81526001600160a01b038b811660048301523060248301529091169250829063dd62ed3e9060440160206040518083038186803b15801561050357600080fd5b505afa158015610517573d6000803e3d6000fd5b505050506040513d601f19601f8201168201806040525081019061053b9190612df0565b6040516370a0823160e01b81526001600160a01b038b811660048301529192506001600160801b038316918416906370a082319060240160206040518083038186803b15801561058a57600080fd5b505afa15801561059e573d6000803e3d6000fd5b505050506040513d601f19601f820116820180604052508101906105c29190612df0565b1015610644576040516370a0823160e01b81526001600160a01b038a811660048301528316906370a082319060240160206040518083038186803b15801561060957600080fd5b505afa15801561061d573d6000803e3d6000fd5b505050506040513d601f19601f820116820180604052508101906106419190612df0565b90505b6000826001600160a01b031663313ce5676040518163ffffffff1660e01b815260040160206040518083038186803b15801561067f57600080fd5b505afa158015610693573d6000803e3d6000fd5b505050506040513d601f19601f820116820180604052508101906106b79190612e09565b905060006106d16001600160801b03841660ff8416611e4b565b905060005b60038701548110156107c057600061074168056bc75e2d631000006107328a600001600301858154811061070c5761070c612dda565b60009182526020909120600260039092020101546001600160801b038781169116611e86565b6001600160801b031690611e9e565b90506107ad8d89600001600301848154811061075f5761075f612dda565b60009182526020909120600160039092020101546001600160a01b03166107926001600160801b03851660ff8916611eb6565b6001600160a01b038a169291906001600160801b0316611edf565b50806107b881612e2c565b9150506106d6565b505050505080806107d090612e2c565b915050610487565b506040516001600160a01b03871681527f357a23da712a8394b0f6db8584a5cda1594a487a94c8ddfd245d49db8572ad5d9060200160405180910390a1505050505050565b3360008181526098602090815260409182902060028101805460ff19169055915192835290917f7a059e9acdd028cf0fa7805ac1bcb2fcd73cd7827da1021f1b74875f062d9a6891015b60405180910390a150565b3360009081526098602052604090206005015460ff161580156108ac5750336000908152609860205260409020546001600160a01b031615155b156108ca57604051633fa53c6960e21b815260040160405180910390fd5b6001600160a01b0383166108f157604051637455f0d160e01b815260040160405180910390fd5b33600090815260986020526040812080546001600160a01b0319166001600160a01b0386161781556001600160801b03848116600160801b42831602176001830155609754600783018054919092166001600160801b0319909116179055905b8251811015610a5e5760006001600160a01b031683828151811061097757610977612dda565b6020026020010151602001516001600160a01b031614156109ab57604051637455f0d160e01b815260040160405180910390fd5b816000016003018382815181106109c4576109c4612dda565b6020908102919091018101518254600181018455600093845292829020815180519294600302909101926109fd92849290910190612518565b5060208201516001820180546001600160a01b0319166001600160a01b03909216919091179055604090910151600290910180546001600160801b0319166001600160801b0390921691909117905580610a5681612e2c565b915050610951565b5050505050565b610a6d611f3f565b610a75611f99565b565b6001600160a01b038116600090815260986020526040812060038101546060918391829182918591829182919067ffffffffffffffff811115610abc57610abc6126cb565b604051908082528060200260200182016040528015610aef57816020015b6060815260200190600190039081610ada5790505b50600382015490945067ffffffffffffffff811115610b1057610b106126cb565b604051908082528060200260200182016040528015610b39578160200160208202803683370190505b50600382015490935067ffffffffffffffff811115610b5a57610b5a6126cb565b604051908082528060200260200182016040528015610b83578160200160208202803683370190505b50915060005b6003820154811015610d305760038201805482908110610bab57610bab612dda565b90600052602060002090600302016000018054610bc790612e47565b80601f0160208091040260200160405190810160405280929190818152602001828054610bf390612e47565b8015610c405780601f10610c1557610100808354040283529160200191610c40565b820191906000526020600020905b815481529060010190602001808311610c2357829003601f168201915b5050505050858281518110610c5757610c57612dda565b6020026020010181905250816000016003018181548110610c7a57610c7a612dda565b906000526020600020906003020160010160009054906101000a90046001600160a01b0316848281518110610cb157610cb1612dda565b6001600160a01b039092166020928302919091019091015260038201805482908110610cdf57610cdf612dda565b600091825260209091206002600390920201015483516001600160801b0390911690849083908110610d1357610d13612dda565b602090810291909101015280610d2881612e2c565b915050610b89565b50805460018201546002830154600484018054604080516020808402820181019092528281526001600160a01b039096169592946001600160801b0380821695600160801b909204169360ff909116928b928b928b929091899190830182828015610dc457602002820191906000526020600020905b81546001600160a01b03168152600190910190602001808311610da6575b505050505096509850985098509850985098509850985050919395975091939597565b6001600160a01b0381166000908152609860209081526040918290206006810180548451818502810185019095528085526060949293830182828015610e5657602002820191906000526020600020905b81546001600160a01b03168152600190910190602001808311610e38575b5050505050915050919050565b600054610100900460ff1615808015610e835750600054600160ff909116105b80610e9d5750303b158015610e9d575060005460ff166001145b610f055760405162461bcd60e51b815260206004820152602e60248201527f496e697469616c697a61626c653a20636f6e747261637420697320616c72656160448201526d191e481a5b9a5d1a585b1a5e995960921b60648201526084015b60405180910390fd5b6000805460ff191660011790558015610f28576000805461ff0019166101001790555b609780546001600160801b0319166001600160801b038416179055610f4b611feb565b610f5361201a565b8015610f9a576000805461ff0019169055604051600181527f7f26b83ff96e1f2b6a682f133852f6798a09c465da95921460cefb3847402498906020015b60405180910390a15b5050565b336000908152609860205260408120905b600382015481101561112d57826001600160a01b0316826000016003018281548110610fdd57610fdd612dda565b60009182526020909120600160039092020101546001600160a01b0316141561111b5760038201805461101290600190612e82565b8154811061102257611022612dda565b906000526020600020906003020182600001600301828154811061104857611048612dda565b9060005260206000209060030201600082018160000190805461106a90612e47565b61107592919061259c565b5060018281015490820180546001600160a01b0319166001600160a01b03909216919091179055600291820154910180546001600160801b0319166001600160801b03909216919091179055600382018054806110d4576110d4612e99565b600082815260208120600019909201916003830201906110f48282612617565b506001810180546001600160a01b031916905560020180546001600160801b031916905590555b8061112581612e2c565b915050610faf565b50604080513381526001600160a01b03841660208201527f1a6590bd0cabbfcc7c86bef99e1034054e179905cfcc294598fcd426c09224429101610f91565b336000908152609860205260408120905b8681101561148a57600088888381811061119957611199612dda565b90506020020160208101906111ae9190612677565b6001600160a01b031614156111d657604051637455f0d160e01b815260040160405180910390fd5b8383828181106111e8576111e8612dda565b90506020020160208101906111fd91906126b0565b60038301546001600160801b03919091169061121b90600190612e82565b101561133c578160000160030160405180606001604052808b848151811061124557611245612dda565b602002602001015181526020018a8a8581811061126457611264612dda565b90506020020160208101906112799190612677565b6001600160a01b0316815260200188888581811061129957611299612dda565b90506020020160208101906112ae91906126b0565b6001600160801b03169052815460018101835560009283526020928390208251805193946003909302909101926112e89284920190612518565b5060208201516001820180546001600160a01b0319166001600160a01b03909216919091179055604090910151600290910180546001600160801b0319166001600160801b03909216919091179055611478565b88818151811061134e5761134e612dda565b602002602001015182600001600301828154811061136e5761136e612dda565b90600052602060002090600302016000019080519060200190611392929190612518565b508787828181106113a5576113a5612dda565b90506020020160208101906113ba9190612677565b600383018054839081106113d0576113d0612dda565b906000526020600020906003020160010160006101000a8154816001600160a01b0302191690836001600160a01b0316021790555085858281811061141757611417612dda565b905060200201602081019061142c91906126b0565b6003830180548390811061144257611442612dda565b906000526020600020906003020160020160006101000a8154816001600160801b0302191690836001600160801b031602179055505b8061148281612e2c565b91505061117d565b506040517f2dde50966c420fb793a66cd5b346db8f50c864b66bc66e1e724e8e32598d8d7f906114c09033906003850190612eaf565b60405180910390a15050505050505050565b6114da611f3f565b610a75600061204d565b6114ec611f3f565b610a7561209f565b336000818152609860209081526040918290206001810180546001600160801b03908116600160801b42928316908102919091179092558451958652928501529290917f55c9c5ee646e1aa94638dad0d79fc724747507090d67ec0eb580a299efa4e4699101610f91565b336000908152609860205260408120905b600682015481101561167c57826001600160a01b031682600601828154811061159b5761159b612dda565b6000918252602090912001546001600160a01b0316141561166a576006820180546115c890600190612e82565b815481106115d8576115d8612dda565b6000918252602090912001546006830180546001600160a01b03909216918390811061160657611606612dda565b9060005260206000200160006101000a8154816001600160a01b0302191690836001600160a01b031602179055508160060180548061164757611647612e99565b600082815260209020810160001990810180546001600160a01b03191690550190555b8061167481612e2c565b915050611570565b505050565b611689611f3f565b609780546001600160801b0319166001600160801b0383169081179091556040519081527f65b9616ef6956f93e9f5ff8c16600ea68f350f5a7837ba453db2e09ced449e6390602001610867565b6001600160a01b038116600090815260986020526040812090805b600683015481101561175357336001600160a01b031683600601828154811061171d5761171d612dda565b6000918252602090912001546001600160a01b031614156117415760019150611753565b8061174b81612e2c565b9150506116f2565b50806117725760405163247edc9760e21b815260040160405180910390fd5b6001600160a01b0383166000908152609860205260408120905b600482015481101561186c5760008260000160040182815481106117b2576117b2612dda565b6000918252602082200154604051636eb1769f60e11b81526001600160a01b0389811660048301523060248301529091169250829063dd62ed3e9060440160206040518083038186803b15801561180857600080fd5b505afa15801561181c573d6000803e3d6000fd5b505050506040513d601f19601f820116820180604052508101906118409190612df0565b90506118576001600160a01b038316883384611edf565b5050808061186490612e2c565b91505061178c565b50604080516001600160a01b03861681523360208201527fc4af7c6b5a6348a0bc6868dcf4514413ca1fb528f1c2f9d69c333b32a9983b83910160405180910390a150505050565b6098602090815260009182526040808320815160e08101835281546001600160a01b0316815260018201546001600160801b0380821683870152600160801b9091041681840152600282015460ff161515606082015260038201805484518187028101870190955280855292959194869460808701949093909184015b82821015611a21578382906000526020600020906003020160405180606001604052908160008201805461196490612e47565b80601f016020809104026020016040519081016040528092919081815260200182805461199090612e47565b80156119dd5780601f106119b2576101008083540402835291602001916119dd565b820191906000526020600020905b8154815290600101906020018083116119c057829003601f168201915b50505091835250506001828101546001600160a01b03166020808401919091526002909301546001600160801b031660409092019190915291835292019101611931565b50505050815260200160048201805480602002602001604051908101604052809291908181526020018280548015611a8257602002820191906000526020600020905b81546001600160a01b03168152600190910190602001808311611a64575b50505091835250506005919091015460ff1615156020909101526007909101546001600160801b031682565b33600081815260986020908152604080832060040180546001810182559084529282902090920180546001600160a01b0319166001600160a01b0386169081179091558251938452908301527fdffbd9ded1c09446f09377de547142dcce7dc541c8b0b028142b1eba7026b9e79101610867565b3360009081526098602052604090206001600160a01b038216611b5857604051637455f0d160e01b815260040160405180910390fd5b6001600160a01b038216331415611b8257604051637e5c446160e01b815260040160405180910390fd5b60005b6006820154811015611bf657826001600160a01b0316826006018281548110611bb057611bb0612dda565b6000918252602090912001546001600160a01b03161415611be4576040516337a0856f60e01b815260040160405180910390fd5b80611bee81612e2c565b915050611b85565b5060068101805460018101825560009182526020918290200180546001600160a01b0319166001600160a01b03851690811790915560408051338152928301919091527faa63604f4f0678e8d82821d14382ce002287732869d0be7800c364d6ef3d0c4d9101610f91565b3360009081526098602052604080822090830151909190611c8b906001600160801b031682612fe3565b905060005b6003830154811015611ced5760038301805482908110611cb257611cb2612dda565b6000918252602090912060026003909202010154611cd9906001600160801b031683612fe3565b915080611ce581612e2c565b915050611c90565b506064811115611d10576040516380959c2b60e01b815260040160405180910390fd5b6003808301805460018101825560009182526020918290208651805188959390930290910192611d4592849290910190612518565b506020828101516001830180546001600160a01b0319166001600160a01b03928316179055604093840151600290930180546001600160801b0319166001600160801b03909416939093179092558581015183513381529216908201527fbb39c36a7502b7256e1a687254146a9a2ea7b146c77cb9e40eb0e2b8793781e1910160405180910390a1505050565b611dda611f3f565b6001600160a01b038116611e3f5760405162461bcd60e51b815260206004820152602660248201527f4f776e61626c653a206e6577206f776e657220697320746865207a65726f206160448201526564647265737360d01b6064820152608401610efc565b611e488161204d565b50565b6000611e5882600a6130df565b611e73670de0b6b3a76400006001600160801b0386166130eb565b611e7d919061310a565b90505b92915050565b6000611e7d6001600160801b038481169084166120dc565b6000611e7d6001600160801b03848116908416612167565b6000670de0b6b3a7640000611ecc83600a6130df565b611e73906001600160801b0386166130eb565b604080516001600160a01b0385811660248301528416604482015260648082018490528251808303909101815260849091019091526020810180516001600160e01b03166323b872dd60e01b179052611f39908590612204565b50505050565b6033546001600160a01b03163314610a755760405162461bcd60e51b815260206004820181905260248201527f4f776e61626c653a2063616c6c6572206973206e6f7420746865206f776e65726044820152606401610efc565b611fa16122d6565b6065805460ff191690557f5db9ee0a495bf2e6ff9c91a7834c1ba4fdd244a5e8aa4e537bd38aeae4b073aa335b6040516001600160a01b03909116815260200160405180910390a1565b600054610100900460ff166120125760405162461bcd60e51b8152600401610efc9061312c565b610a7561231f565b600054610100900460ff166120415760405162461bcd60e51b8152600401610efc9061312c565b6065805460ff19169055565b603380546001600160a01b038381166001600160a01b0319831681179093556040519116919082907f8be0079c531659141344cd1fd0a4f28419497f9722a3daafe3b4186f6b6457e090600090a35050565b6120a761234f565b6065805460ff191660011790557f62e78cea01bee320cd4e420270b5ea74000d11b0c9f74754ebdbfc544b05a258611fce3390565b60008215806120e9575081155b156120f657506000611e80565b8161210a6002670de0b6b3a764000061310a565b61211690600019612e82565b612120919061310a565b83111561213f5760405162a748d160e21b815260040160405180910390fd5b670de0b6b3a764000061215360028261310a565b61215d84866130eb565b611e739190612fe3565b600081612187576040516308693c7b60e31b815260040160405180910390fd5b600061219460028461310a565b9050670de0b6b3a76400006121ab82600019612e82565b6121b5919061310a565b8411156121d45760405162a748d160e21b815260040160405180910390fd5b82816121e8670de0b6b3a7640000876130eb565b6121f29190612fe3565b6121fc919061310a565b949350505050565b6000612259826040518060400160405280602081526020017f5361666545524332303a206c6f772d6c6576656c2063616c6c206661696c6564815250856001600160a01b03166123959092919063ffffffff16565b80519091501561167c57808060200190518101906122779190613177565b61167c5760405162461bcd60e51b815260206004820152602a60248201527f5361666545524332303a204552433230206f7065726174696f6e20646964206e6044820152691bdd081cdd58d8d9595960b21b6064820152608401610efc565b60655460ff16610a755760405162461bcd60e51b815260206004820152601460248201527314185d5cd8589b194e881b9bdd081c185d5cd95960621b6044820152606401610efc565b600054610100900460ff166123465760405162461bcd60e51b8152600401610efc9061312c565b610a753361204d565b60655460ff1615610a755760405162461bcd60e51b815260206004820152601060248201526f14185d5cd8589b194e881c185d5cd95960821b6044820152606401610efc565b60606123a484846000856123ae565b90505b9392505050565b60608247101561240f5760405162461bcd60e51b815260206004820152602660248201527f416464726573733a20696e73756666696369656e742062616c616e636520666f6044820152651c8818d85b1b60d21b6064820152608401610efc565b6001600160a01b0385163b6124665760405162461bcd60e51b815260206004820152601d60248201527f416464726573733a2063616c6c20746f206e6f6e2d636f6e74726163740000006044820152606401610efc565b600080866001600160a01b031685876040516124829190613199565b60006040518083038185875af1925050503d80600081146124bf576040519150601f19603f3d011682016040523d82523d6000602084013e6124c4565b606091505b50915091506124d48282866124df565b979650505050505050565b606083156124ee5750816123a7565b8251156124fe5782518084602001fd5b8160405162461bcd60e51b8152600401610efc91906131b5565b82805461252490612e47565b90600052602060002090601f016020900481019282612546576000855561258c565b82601f1061255f57805160ff191683800117855561258c565b8280016001018555821561258c579182015b8281111561258c578251825591602001919060010190612571565b5061259892915061264d565b5090565b8280546125a890612e47565b90600052602060002090601f0160209004810192826125ca576000855561258c565b82601f106125db578054855561258c565b8280016001018555821561258c57600052602060002091601f016020900482015b8281111561258c5782548255916001019190600101906125fc565b50805461262390612e47565b6000825580601f10612633575050565b601f016020900490600052602060002090810190611e4891905b5b80821115612598576000815560010161264e565b6001600160a01b0381168114611e4857600080fd5b60006020828403121561268957600080fd5b81356123a781612662565b80356001600160801b03811681146126ab57600080fd5b919050565b6000602082840312156126c257600080fd5b611e7d82612694565b634e487b7160e01b600052604160045260246000fd5b604051601f8201601f1916810167ffffffffffffffff8111828210171561270a5761270a6126cb565b604052919050565b600067ffffffffffffffff82111561272c5761272c6126cb565b5060051b60200190565b600082601f83011261274757600080fd5b813567ffffffffffffffff811115612761576127616126cb565b612774601f8201601f19166020016126e1565b81815284602083860101111561278957600080fd5b816020850160208301376000918101602001919091529392505050565b6000606082840312156127b857600080fd5b6040516060810167ffffffffffffffff82821081831117156127dc576127dc6126cb565b8160405282935084359150808211156127f457600080fd5b5061280185828601612736565b825250602083013561281281612662565b602082015261282360408401612694565b60408201525092915050565b60008060006060848603121561284457600080fd5b833561284f81612662565b9250602061285e858201612694565b9250604085013567ffffffffffffffff8082111561287b57600080fd5b818701915087601f83011261288f57600080fd5b81356128a261289d82612712565b6126e1565b81815260059190911b8301840190848101908a8311156128c157600080fd5b8585015b838110156128f9578035858111156128dd5760008081fd5b6128eb8d89838a01016127a6565b8452509186019186016128c5565b508096505050505050509250925092565b600081518084526020808501945080840160005b838110156129435781516001600160a01b03168752958201959082019060010161291e565b509495945050505050565b60005b83811015612969578181015183820152602001612951565b83811115611f395750506000910152565b6000815180845261299281602086016020860161294e565b601f01601f19169290920160200192915050565b600081518084526020808501945080840160005b83811015612943578151875295820195908201906001016129ba565b6001600160a01b03891681526101006020808301829052600091906129fd8483018c61290a565b6001600160801b038b811660408701528a166060860152881515608086015284810360a0860152875180825290925081830190600581901b84018301838a0160005b83811015612a6d57601f19878403018552612a5b83835161297a565b94860194925090850190600101612a3f565b505086810360c0880152612a81818a61290a565b94505050505082810360e0840152612a9981856129a6565b9b9a5050505050505050505050565b602081526000611e7d602083018461290a565b60008083601f840112612acd57600080fd5b50813567ffffffffffffffff811115612ae557600080fd5b6020830191508360208260051b8501011115612b0057600080fd5b9250929050565b60008060008060008060006080888a031215612b2257600080fd5b67ffffffffffffffff8089351115612b3957600080fd5b883589018a601f820112612b4c57600080fd5b8035612b5a61289d82612712565b8082825260208201915060208360051b85010192508d831115612b7c57600080fd5b602084015b83811015612bb5578581351115612b9757600080fd5b612ba78f60208335880101612736565b835260209283019201612b81565b509a50505050602089013581811115612bcd57600080fd5b612bd98b828c01612abb565b909850965050604089013581811115612bf157600080fd5b612bfd8b828c01612abb565b909650945050606089013581811115612c1557600080fd5b612c218b828c01612abb565b999c989b5096995094979396939450505050565b6000815180845260208085019450848260051b860182860160005b85811015612cac578383038952815160608151818652612c728287018261297a565b838901516001600160a01b0316878a01526040938401516001600160801b0316939096019290925250509784019790840190600101612c50565b5090979650505050505050565b604080825283516001600160a01b03168282015260208401516001600160801b039081166060808501919091529185015116608083015283015180151560a083015260009050608084015160e060c0840152612d19610120840182612c35565b905060a0850151603f198483030160e0850152612d36828261290a565b91505060c0850151612d4d61010085018215159052565b506001600160801b038416602084015290506123a7565b600060208284031215612d7657600080fd5b813567ffffffffffffffff811115612d8d57600080fd5b6121fc848285016127a6565b634e487b7160e01b600052601160045260246000fd5b60006001600160801b03808316818516808303821115612dd157612dd1612d99565b01949350505050565b634e487b7160e01b600052603260045260246000fd5b600060208284031215612e0257600080fd5b5051919050565b600060208284031215612e1b57600080fd5b815160ff811681146123a757600080fd5b6000600019821415612e4057612e40612d99565b5060010190565b600181811c90821680612e5b57607f821691505b60208210811415612e7c57634e487b7160e01b600052602260045260246000fd5b50919050565b600082821015612e9457612e94612d99565b500390565b634e487b7160e01b600052603160045260246000fd5b6000604080830160018060a01b038616845260208281860152818654808452606093508387019150838160051b8801016000898152848120815b84811015612fd2578a8403605f1901865287845281548390600181811c9080831680612f1657607f831692505b8b8310811415612f3457634e487b7160e01b88526022600452602488fd5b888d01838152602001818015612f515760018114612f6257612f8c565b60ff19861682528d82019650612f8c565b6000898152602090208a5b86811015612f8657815484820152908501908f01612f6d565b83019750505b5050508501546001600160a01b0316878b018190529150612faa9050565b5060028301546001600160801b0316948a019490945294860194600390910190600101612ee9565b50919b9a5050505050505050505050565b60008219821115612ff657612ff6612d99565b500190565b600181815b8085111561303657816000190482111561301c5761301c612d99565b8085161561302957918102915b93841c9390800290613000565b509250929050565b60008261304d57506001611e80565b8161305a57506000611e80565b8160018114613070576002811461307a57613096565b6001915050611e80565b60ff84111561308b5761308b612d99565b50506001821b611e80565b5060208310610133831016604e8410600b84101617156130b9575081810a611e80565b6130c38383612ffb565b80600019048211156130d7576130d7612d99565b029392505050565b6000611e7d838361303e565b600081600019048311821515161561310557613105612d99565b500290565b60008261312757634e487b7160e01b600052601260045260246000fd5b500490565b6020808252602b908201527f496e697469616c697a61626c653a20636f6e7472616374206973206e6f74206960408201526a6e697469616c697a696e6760a81b606082015260800190565b60006020828403121561318957600080fd5b815180151581146123a757600080fd5b600082516131ab81846020870161294e565b9190910192915050565b602081526000611e7d602083018461297a56fea2646970667358221220b4c4e2bfbd719769d0c0409d5f48bd720c67ccb83e06d51ca32db80ddab2f93d64736f6c63430008080033",
  "devdoc": {
    "author": "Peace Foundation",
    "kind": "dev",
    "methods": {
      "addBackup(address)": {
        "params": {
          "backupAddress": "The address to add"
        }
      },
      "addBeneficiary((string,address,uint128))": {
        "details": "The addeed percentage of the beneficiaries should not exceed 100%The total maximum percentage should be 100%",
        "params": {
          "beneficiary": "The beneficiary to add"
        }
      },
      "addToken(address)": {
        "details": "there is no function to remove a token since that can be done by decreasing the allowance of this contract. Doing otherwise would be expensive and unnecessary",
        "params": {
          "token": "The token to be added to the protected tokens list"
        }
      },
      "createTestament(address,uint128,(string,address,uint128)[])": {
        "details": "The beneficiaries percentages should be with an 18 decimals precision to allow for percentages with decimalsThe beneficiaries percentages should add up to 100%",
        "params": {
          "beneficiaries": "The beneficiaries that will inherit the vault",
          "inactivityMaximum": "The maximum inactivity time"
        }
      },
      "getBackupAddresses(address)": {
        "params": {
          "owner": "The owner of the dynamic vault"
        },
        "returns": {
          "_0": "backupAddresses The backup addresses"
        }
      },
      "getTestamentParameters(address)": {
        "params": {
          "owner": "The owner of the dynamic vault"
        },
        "returns": {
          "claimant": "The claimant of the dynamic vault",
          "inactivityMaximum": "The maximum inactivity time",
          "proofOfLife": "The last registred proof of life timestamp",
          "succeeded": "Whether the dynamic vault has been succeeded",
          "tokens": "The approved tokens"
        }
      },
      "owner()": {
        "details": "Returns the address of the current owner."
      },
      "paused()": {
        "details": "Returns true if the contract is paused, and false otherwise."
      },
      "removeBackup(address)": {
        "params": {
          "backupAddress": "The address to remove"
        }
      },
      "removeBeneficiary(address)": {
        "params": {
          "address_": "The beneficiary to remove"
        }
      },
      "renounceOwnership()": {
        "details": "Leaves the contract without owner. It will not be possible to call `onlyOwner` functions anymore. Can only be called by the current owner. NOTE: Renouncing ownership will leave the contract without an owner, thereby removing any functionality that is only available to the owner."
      },
      "repossessAccount(address)": {
        "params": {
          "owner": "The owner of the dynamic vault"
        }
      },
      "succeed(address)": {
        "details": "The function can only be called after the inactivity period is over",
        "params": {
          "owner": "The owner of the dynamic vault"
        }
      },
      "transferOwnership(address)": {
        "details": "Transfers ownership of the contract to a new account (`newOwner`). Can only be called by the current owner."
      },
      "updateBeneficiaries(string[],address[],uint128[],uint128[])": {
        "params": {
          "addresses": "The addresses of the beneficiary",
          "names": "The names of the beneficiaries",
          "newInheritancePercentages": "The new inheritance percentages"
        }
      },
      "updateInactivityMaximum(uint128)": {
        "params": {
          "newInactivityMaximum": "The new inactivity time"
        }
      }
    },
    "title": "DynamicVaults",
    "version": 1
  },
  "userdoc": {
    "kind": "user",
    "methods": {
      "addBackup(address)": {
        "notice": "Adds backup address"
      },
      "addBeneficiary((string,address,uint128))": {
        "notice": "Adds beneficiary to thedynamicVault"
      },
      "addToken(address)": {
        "notice": "Adds a token to thedynamicVault "
      },
      "cancelTestament()": {
        "notice": "Cancels the testament"
      },
      "createTestament(address,uint128,(string,address,uint128)[])": {
        "notice": "Creates a dynamic vault"
      },
      "getBackupAddresses(address)": {
        "notice": "Returns the backup addresses of a given dynamic vault id"
      },
      "getTestamentParameters(address)": {
        "notice": "Returns the testament parameters of a given dynamic vault id"
      },
      "pause()": {
        "notice": "Stops all actions on all vaults"
      },
      "removeBackup(address)": {
        "notice": "Removes backup address"
      },
      "removeBeneficiary(address)": {
        "notice": "Removes beneficiary from the vault"
      },
      "repossessAccount(address)": {
        "notice": "Transfers the protected tokens to the backup address"
      },
      "signalLife()": {
        "notice": "Updates the proof of life timestamp"
      },
      "succeed(address)": {
        "notice": "Transfers the tokens to the beneficiaries"
      },
      "unpause()": {
        "notice": "Unpause vaults. Makes actions available again on all vaults*"
      },
      "updateBeneficiaries(string[],address[],uint128[],uint128[])": {
        "notice": "Updates the inheritance percentage of a beneficiary"
      },
      "updateEstablishmentFeeRate(uint128)": {
        "notice": "Sets the global establishment fee rate*"
      },
      "updateInactivityMaximum(uint128)": {
        "notice": "Updates the inactivity time of thedynamicVault "
      }
    },
    "notice": "Dyanmic vaults contract that allows for the transfer of tokens in case of emergency",
    "version": 1
  },
  "storageLayout": {
    "storage": [
      {
        "astId": 138,
        "contract": "contracts/DynamicVaults.sol:DynamicVaults",
        "label": "_initialized",
        "offset": 0,
        "slot": "0",
        "type": "t_uint8"
      },
      {
        "astId": 141,
        "contract": "contracts/DynamicVaults.sol:DynamicVaults",
        "label": "_initializing",
        "offset": 1,
        "slot": "0",
        "type": "t_bool"
      },
      {
        "astId": 752,
        "contract": "contracts/DynamicVaults.sol:DynamicVaults",
        "label": "__gap",
        "offset": 0,
        "slot": "1",
        "type": "t_array(t_uint256)50_storage"
      },
      {
        "astId": 10,
        "contract": "contracts/DynamicVaults.sol:DynamicVaults",
        "label": "_owner",
        "offset": 0,
        "slot": "51",
        "type": "t_address"
      },
      {
        "astId": 130,
        "contract": "contracts/DynamicVaults.sol:DynamicVaults",
        "label": "__gap",
        "offset": 0,
        "slot": "52",
        "type": "t_array(t_uint256)49_storage"
      },
      {
        "astId": 321,
        "contract": "contracts/DynamicVaults.sol:DynamicVaults",
        "label": "_paused",
        "offset": 0,
        "slot": "101",
        "type": "t_bool"
      },
      {
        "astId": 426,
        "contract": "contracts/DynamicVaults.sol:DynamicVaults",
        "label": "__gap",
        "offset": 0,
        "slot": "102",
        "type": "t_array(t_uint256)49_storage"
      },
      {
        "astId": 2107,
        "contract": "contracts/DynamicVaults.sol:DynamicVaults",
        "label": "establishmentFeeRate",
        "offset": 0,
        "slot": "151",
        "type": "t_uint128"
      },
      {
        "astId": 2112,
        "contract": "contracts/DynamicVaults.sol:DynamicVaults",
        "label": "dynamicVaults",
        "offset": 0,
        "slot": "152",
        "type": "t_mapping(t_address,t_struct(DynamicVault)3705_storage)"
      }
    ],
    "types": {
      "t_address": {
        "encoding": "inplace",
        "label": "address",
        "numberOfBytes": "20"
      },
      "t_address_payable": {
        "encoding": "inplace",
        "label": "address payable",
        "numberOfBytes": "20"
      },
      "t_array(t_address)dyn_storage": {
        "base": "t_address",
        "encoding": "dynamic_array",
        "label": "address[]",
        "numberOfBytes": "32"
      },
      "t_array(t_struct(Beneficiary)3678_storage)dyn_storage": {
        "base": "t_struct(Beneficiary)3678_storage",
        "encoding": "dynamic_array",
        "label": "struct Types.Beneficiary[]",
        "numberOfBytes": "32"
      },
      "t_array(t_uint256)49_storage": {
        "base": "t_uint256",
        "encoding": "inplace",
        "label": "uint256[49]",
        "numberOfBytes": "1568"
      },
      "t_array(t_uint256)50_storage": {
        "base": "t_uint256",
        "encoding": "inplace",
        "label": "uint256[50]",
        "numberOfBytes": "1600"
      },
      "t_bool": {
        "encoding": "inplace",
        "label": "bool",
        "numberOfBytes": "1"
      },
      "t_mapping(t_address,t_struct(DynamicVault)3705_storage)": {
        "encoding": "mapping",
        "key": "t_address",
        "label": "mapping(address => struct Types.DynamicVault)",
        "numberOfBytes": "32",
        "value": "t_struct(DynamicVault)3705_storage"
      },
      "t_string_storage": {
        "encoding": "bytes",
        "label": "string",
        "numberOfBytes": "32"
      },
      "t_struct(Beneficiary)3678_storage": {
        "encoding": "inplace",
        "label": "struct Types.Beneficiary",
        "members": [
          {
            "astId": 3673,
            "contract": "contracts/DynamicVaults.sol:DynamicVaults",
            "label": "name",
            "offset": 0,
            "slot": "0",
            "type": "t_string_storage"
          },
          {
            "astId": 3675,
            "contract": "contracts/DynamicVaults.sol:DynamicVaults",
            "label": "address_",
            "offset": 0,
            "slot": "1",
            "type": "t_address_payable"
          },
          {
            "astId": 3677,
            "contract": "contracts/DynamicVaults.sol:DynamicVaults",
            "label": "inheritancePercentage",
            "offset": 0,
            "slot": "2",
            "type": "t_uint128"
          }
        ],
        "numberOfBytes": "96"
      },
      "t_struct(DynamicVault)3705_storage": {
        "encoding": "inplace",
        "label": "struct Types.DynamicVault",
        "members": [
          {
            "astId": 3699,
            "contract": "contracts/DynamicVaults.sol:DynamicVaults",
            "label": "testament",
            "offset": 0,
            "slot": "0",
            "type": "t_struct(Testament)3696_storage"
          },
          {
            "astId": 3702,
            "contract": "contracts/DynamicVaults.sol:DynamicVaults",
            "label": "backupAddresses",
            "offset": 0,
            "slot": "6",
            "type": "t_array(t_address)dyn_storage"
          },
          {
            "astId": 3704,
            "contract": "contracts/DynamicVaults.sol:DynamicVaults",
            "label": "ESTABLISHMENT_FEE_RATE",
            "offset": 0,
            "slot": "7",
            "type": "t_uint128"
          }
        ],
        "numberOfBytes": "256"
      },
      "t_struct(Testament)3696_storage": {
        "encoding": "inplace",
        "label": "struct Types.Testament",
        "members": [
          {
            "astId": 3680,
            "contract": "contracts/DynamicVaults.sol:DynamicVaults",
            "label": "claimant",
            "offset": 0,
            "slot": "0",
            "type": "t_address"
          },
          {
            "astId": 3682,
            "contract": "contracts/DynamicVaults.sol:DynamicVaults",
            "label": "inactivityMaximum",
            "offset": 0,
            "slot": "1",
            "type": "t_uint128"
          },
          {
            "astId": 3684,
            "contract": "contracts/DynamicVaults.sol:DynamicVaults",
            "label": "proofOfLife",
            "offset": 16,
            "slot": "1",
            "type": "t_uint128"
          },
          {
            "astId": 3686,
            "contract": "contracts/DynamicVaults.sol:DynamicVaults",
            "label": "succeeded",
            "offset": 0,
            "slot": "2",
            "type": "t_bool"
          },
          {
            "astId": 3690,
            "contract": "contracts/DynamicVaults.sol:DynamicVaults",
            "label": "beneficiaries",
            "offset": 0,
            "slot": "3",
            "type": "t_array(t_struct(Beneficiary)3678_storage)dyn_storage"
          },
          {
            "astId": 3693,
            "contract": "contracts/DynamicVaults.sol:DynamicVaults",
            "label": "tokens",
            "offset": 0,
            "slot": "4",
            "type": "t_array(t_address)dyn_storage"
          },
          {
            "astId": 3695,
            "contract": "contracts/DynamicVaults.sol:DynamicVaults",
            "label": "canceled",
            "offset": 0,
            "slot": "5",
            "type": "t_bool"
          }
        ],
        "numberOfBytes": "192"
      },
      "t_uint128": {
        "encoding": "inplace",
        "label": "uint128",
        "numberOfBytes": "16"
      },
      "t_uint256": {
        "encoding": "inplace",
        "label": "uint256",
        "numberOfBytes": "32"
      },
      "t_uint8": {
        "encoding": "inplace",
        "label": "uint8",
        "numberOfBytes": "1"
      }
    }
  }
}